:020000040800F2
:1000000000C0002075460008C1320008C332000855
:10001000C5320008C7320008C932000800000000DD
:10002000000000000000000000000000CB320008CB
:10003000CD32000800000000CF320008D1320008A5
:10004000BD460008BD460008BD460008BD46000884
:10005000BD460008BD460008BD460008BD46000874
:10006000BD460008BD460008BD460008BD46000864
:10007000BD460008BD460008BD460008BD46000854
:10008000BD460008BD460008BD460008BD46000844
:10009000BD460008BD460008BD460008BD46000834
:1000A000BD460008BD460008BD460008BD46000824
:1000B000BD460008BD460008BD460008BD46000814
:1000C000BD460008BD460008BD460008BD46000804
:1000D000BD460008BD460008BD460008BD460008F4
:1000E000BD460008BD460008BD460008BD460008E4
:1000F000BD460008BD460008BD460008BD460008D4
:10010000BD460008BD460008BD460008BD460008C3
:10011000BD460008BD460008BD460008BD460008B3
:10012000BD460008BD460008BD460008BD460008A3
:1001300000000000000000000000000000000000BF
:1001400000000000000000000000000000000000AF
:10015000000000000000000000000000000000009F
:10016000000000000000000000000000000000008F
:10017000000000000000000000000000000000007F
:10018000000000000000000000000000000000006F
:10019000000000000000000000000000000000005F
:1001A000000000000000000000000000000000004F
:1001B000000000000000000000000000000000003F
:1001C000000000000000000000000000000000002F
:1001D000000000000000000000000000000000001F
:0401E0005FF8E0F1F3
:1001E80070B5860747D0541E002A3ED00346CAB2CF
:1001F80001E0013C39D303F8012B9D07F9D1032C09
:100208002CD9CDB205EB05250F2C1A4605EB054573
:1002180034D9A4F1100C2CF00F0603F1100EB644DB
:100228004FEA1C1C156055609560D5601032724508
:10023800F8D10CF1010214F00C0F03EB021204F0D8
:100248000F0C13D0ACF1040323F00303043313445D
:1002580042F8045B9A42FBD10CF003042CB1C9B2FA
:100268001C4403F8011B9C42FBD170BD6446134635
:10027800002CF4D1F9E703461446C0E7A446E1E7A9
:10028800014B1868704700BF0000002070B50F4B85
:100298000F4DAB42A3EB050607D00024B61055F866
:1002A800043B01349847A642F9D804F005FA094DF1
:1002B800094B5E1BAB424FEAA60606D0002455F850
:1002C800043B01349847A642F9D870BD104B00088A
:1002D800104B0008104B0008144B000838B50446B2
:1002E80000F066FA21460546204602F0E5F938B9DD
:1002F800204600F06BF84FF07E5102F0D3F908B9B0
:10030800284638BDFFF7BCFF2122034602481A6081
:10031800BDE8384000F098B80C4B000800F096BBD8
:1003280038B5044600F094F821460546204602F008
:10033800C3F920B92046002102F096F908B92846E9
:1003480038BDFFF79DFF2122034600211A600846A9
:1003580002F0A0F80546284638BD00BF1A4A20F02A
:10036800004393421AD900B5B3F1FF4F83B005D3C8
:10037800014601F0D1FE03B05DF804FB694600F0C8
:10038800EDFB00F00302012A0BD0022A15D07AB146
:1003980001220199009800F093F9ECE7002100F0A0
:1003A800C7B80199009800F08BF900F10040E2E726
:1003B8000199009800F0BCF8DDE70199009800F079
:1003C800B7F800F10040D6E7D80F493F20F00040C9
:1003D800704700BF1B4A20F0004393421BD900B569
:1003E800B3F1FF4F83B005D3014601F095FE03B08A
:1003F8005DF804FB694600F0B1FB00F0030001283A
:100408000DD0022816D078B10199009800F090F824
:1004180000F10040EBE70022002100F051B90199FA
:10042800009800F085F8E2E701220199009800F0B1
:1004380047F9DCE701220199009800F041F900F141
:100448000040D4E7D80F493F004870470000C07FFC
:1004580020F00042B2F1FF4FF8B5044651D2002A0D
:100468004ED00028034653DB14F0FF4F4FEAE0500C
:1004780009D114F4000256D15B001C02114602F1A6
:100488000102F9D5401A00244FF0190E4FF0807C74
:100498002146C3F3160242F40002C307A0F17F0508
:1004A80058BF52006D10520001EB0C039342CFBFAE
:1004B800134603EB0C016444D31ABEF1010E4FEA54
:1004C80043024FEA5C0CEFD1ABB1184E306871684B
:1004D80001F022FE37680146384602F0CFF850B1E5
:1004E8003068716801F01AFE36680146304602F03D
:1004F800BBF8A0B10234601000F17C5000EBC5508D
:10050800F8BD014601F012FF214601F007FEF8BDD3
:10051800014601F001FE014601F0BCFFF8BD0134BF
:1005280024F00104E7E74FF0FF31ABE7500000206B
:100538002DE9F84320F00046B6F1485F05468846A5
:100548004BD202F0CFF8002800F0A18029462846B7
:1005580001F0ECFE0446504901F0E8FE4F4901F075
:10056800DDFD214601F0E2FE4D4901F0D5FD2146B1
:1005780001F0DCFE4B4901F0D1FD214601F0D6FE29
:10058800494901F0C9FD214601F0D0FE474901F073
:10059800C5FD214601F0CAFE07464FF07C512046B2
:1005A80001F0C4FE0346394620461C4601F0BEFE53
:1005B8000346414628461D4601F0B8FE0146284636
:1005C80001F0AAFD0146204601F0A6FD01464FF0C4
:1005D8007E5001F0A1FDBDE8F883014601F0A6FEBA
:1005E80004462D4901F0A2FE2C4901F097FD214651
:1005F80001F09CFE2A4901F08FFD214601F096FE8C
:10060800284901F08BFD214601F090FE264901F0B2
:1006180083FD214601F08AFE244901F07FFD214631
:1006280001F084FE224B07469E42B6D9214B9E42DA
:1006380029D806F17F4631464FF07E5001F06CFD17
:10064800814620464FF07C5101F070FE314601F0A2
:1006580063FD0346394620461C4601F067FE034603
:10066800414628461D4601F061FE0146284601F034
:1006780053FD0146204601F04FFD0146484601F072
:100688004BFDBDE8F883DFF830900C4ED9E74FF00A
:100698007E50BDE8F88300BF4ED747ADF6740F31E2
:1006A8007CF29334010DD037610BB63AABAA2A3DE0
:1006B8009999993E0000483F0000383F0000903E5D
:1006C8002DE9F84320F00043B3F1485F04460E4695
:1006D800904603D202F006F8002859D02146204659
:1006E80001F024FE05462046294601F01FFE2A494E
:1006F8008146284601F01AFE284901F00DFD2946D9
:1007080001F014FE264901F009FD294601F00EFE0C
:10071800244901F001FD294601F008FE224901F0B3
:10072800FDFC0746B8F1000F23D04FF07C5130464E
:1007380001F0FCFD0346394648461F4601F0F6FD28
:100748000146384601F0E8FC294601F0EFFD314644
:1007580001F0E2FC15490546484601F0E7FD01466F
:10076800284601F0DBFC0146204601F0D5FCBDE837
:10077800F8830146284601F0D9FD0C4901F0CCFC6C
:10078800494601F0D3FD214601F0C8FCBDE8F883D5
:100798002046BDE8F88300BFD3C92E2F342FD732A7
:1007A8001BEF3836010D50398988083CABAA2A3E20
:1007B8002DE9F84320F00045B5F17E5F044600F0CE
:1007C800B28000F2A880B5F17C5F06460DD2B5F183
:1007D800485F80F0CE808D4901F0A0FC4FF07E513B
:1007E80001F060FF002840F0C2802046FFF7EEFDD0
:1007F80001464FF07E5001F08FFC4FF07C5101F024
:1008080095FD0446824901F091FD824901F086FC7C
:10081800214601F08BFD804901F07EFC214601F064
:1008280085FD7E4901F07AFC214601F07FFD7C4977
:1008380001F072FC214601F079FD7A4901F06EFC65
:10084800214601F073FD78498046204601F06EFD8F
:10085800764901F061FC214601F068FD744901F018
:100868005DFC214601F062FD724901F055FC21460C
:1008780001F05CFD4FF07E5101F050FC81462046AE
:10088800FFF7E6FD6C4B07469D425BD8014601F039
:1008980045FC034649464046984601F0FBFD0146A3
:1008A800404601F043FD27F47F6525F00F0580469B
:1008B8002946284601F03AFD0146204601F02CFC65
:1008C80029460446384601F029FC0146204601F035
:1008D800E1FD014601F022FC0146584801F01CFCEC
:1008E8000146404601F018FC29460446284601F016
:1008F80015FC0146524801F00FFC0146204601F064
:100908000BFC01464E4801F007FC002E09DC00F103
:100918000040BDE8F883014601F0FEFB014601F006
:10092800B9FDBDE8F883474901F000FD0346434996
:1009380020461C4601F0FAFC0146204601F0EEFB79
:10094800BDE8F8834946404601F0A4FD394601F068
:10095800EDFC394601F0E2FB014601F0DFFB3A49C4
:1009680001F0DCFB0146374801F0D6FBCDE7204615
:10097800D7E7014601F0DAFC0546254901F0D6FC27
:10098800244901F0CBFB294601F0D0FC224901F0B3
:10099800C3FB294601F0CAFC204901F0BFFB2946E8
:1009A80001F0C4FC1E4901F0B7FB294601F0BEFC6A
:1009B8001C4901F0B3FB294601F0B8FC1A49064668
:1009C800284601F0B3FC194901F0A6FB294601F0BD
:1009D800ADFC174901F0A2FB294601F0A7FC154917
:1009E80001F09AFB294601F0A1FC4FF07E5101F07D
:1009F80095FB0146304601F04DFD214601F096FC7D
:100A0800214601F08BFBBDE8F88300BFCAF24971AB
:100A180008EF1138047F4F3A4611243DA80A4E3E8C
:100A280090B0A63EABAA2A3E2EC69D3D6133303F0C
:100A38002D57014039D119409999793F2EBD3BB3C3
:100A4800DB0F493FDB0FC93F2EBD3B3370B521F0AB
:100A58000045B5F1FF4F0A4603462CD820F0004662
:100A6800B6F1FF4F844626D8B1F17E5F35D08C179A
:100A780004F0020444EAD07416B33DB3B5F1FF4F55
:100A880033D0B6F1FF4F21D0761BB6F1F45F4FEAB1
:100A9800E65028DA002934DA3C3032DA0020012C1A
:100AA80040D0022C36D02CB1254901F037FB25491E
:100AB80001F032FB70BD1946104601F02FFB70BDE6
:100AC800022C08D0032CF5D11F4870BDBCF1000FD3
:100AD80007DB1E4870BD1B4870BDBDE8704000F0C4
:100AE800A7B91B4870BD1948D9E7B6F1FF4F04F103
:100AF800FF341AD0022C1ED8164B03EB8403D86897
:100B080070BD1146184601F0C5FCFFF75FFC00F008
:100B18008FF9C4E70A4901F001FB0146094801F0D1
:100B2800FBFA70BD00F1004070BD022C05D8094BDE
:100B380053F8240070BD002070BD074870BD00BF89
:100B48002EBDBB33DB0F4940DB0F49C0DB0FC93F6C
:100B5800DB0FC9BFD8460008DB0F493F2DE9F04F2E
:100B6800A64A20F0004595420C4689B06FD9A44AA0
:100B7800064695421FD820F000450028A14925F0D7
:100B88000F0540F3148101F0C7FA9F4B06469D42BA
:100B980068D09E4901F0C0FA05463046294601F062
:100BA800BBFA9A4901F0B8FA012725606060384617
:100BB80009B0BDE8F08F964A954263D9B5F1FF4F69
:100BC8004AD2EF15863FA5EBC755284601F08AFDA6
:100BD80001F058FB01462846059101F09DFA4FF0B7
:100BE800874101F0A3FB804601F07CFD01F04AFB40
:100BF800054640462946069501F08EFA4FF0874192
:100C080001F094FB0021079001F024FD002800F07A
:100C1800CA802846002101F01DFD002814BF0123C9
:100C2800022302257B493A46019105A821460095F1
:100C380000F002FA002E0746B9DAD4E9002302F1DF
:100C4800004203F10043226063604742AFE700229D
:100C580020604A600027AAE7014601F05DFA60605B
:100C68002060F7E76C4901F057FA6C49064601F035
:100C780053FA05463046294601F04EFA674901F015
:100C88004BFA91E7FFF7A2FB6549804601F04EFB5E
:100C98004FF07C5101F042FA01F024FD074601F0C3
:100CA800F1FA5849834601F041FB0146404601F0FC
:100CB80033FA56498246584601F038FB1F2F8146C1
:100CC8000146504622DC574B7A1E53F8222026F064
:100CD800004323F0FF03934218D001F01DFA804629
:100CE80041465046C4F8008001F016FA494601F022
:100CF80013FA002E6060BFF65AAF08F1004800F101
:100D08000040C4F8008060607F4250E701F004FAB8
:100D1800C0F3C753C3EBD553EA15082B804603929B
:100D2800DEDD3D49584601F001FB8046504641460C
:100D380001F0F2F905465046294601F0EDF9414621
:100D480001F0EAF980463549584601F0EFFA414684
:100D580001F0E2F981462846494601F0DDF9039A97
:100D6800C0F3C753D21A192A80461EDD2E495846A9
:100D780001F0DCFA80462846414601F0CDF982466A
:100D88002846514601F0C8F9414601F0C5F9054623
:100D98002649584601F0CAFA294601F0BDF98146AC
:100DA8005046494699E703233BE7AA4698E701F0EE
:100DB800B5F9154B06469D420FD0144901F0AEF91E
:100DC80005463046294601F0A7F9104901F0A6F971
:100DD8004FF0FF3725606060E9E60F4901F09EF9A2
:100DE8000E49064601F09AF905463046294601F0B3
:100DF80093F90A4901F092F9EAE700BFD80F493F91
:100E0800E3CB1640800FC93FD00FC93F4344353765
:100E1800800F4943704700080044353708A3852EE2
:100E280084F9223FF046000800A3852E32318D2434
:100E38002DE9F04120F00045B5F1A14F04460746E1
:100E480008D3B5F1FF4F73D8002840F38180674875
:100E5800BDE8F081664B9D427DD8B5F1445F6CD307
:100E68004FF0FF382146204601F060FA0146064659
:100E780001F05CFA05465F4901F058FA5E4901F055
:100E88004DF9294601F052FA5C4901F047F9294623
:100E980001F04CFA5A4901F041F9294601F046FAA5
:100EA800584901F03BF9294601F040FA564901F04A
:100EB80035F9314601F03AFA54490646284601F018
:100EC80035FA534901F028F9294601F02FFA51491A
:100ED80001F022F9294601F029FA4F4901F01CF9DD
:100EE800294601F023FA4D4901F016F9294601F087
:100EF8001DFA0146304601F011F9214601F016FAB3
:100F0800B8F1FF3F01463CD0454D05EB8803196910
:100F180001F002F9214601F0FFF8014655F82800D2
:100F280001F0FAF8002F93DA00F10040BDE8F081F3
:100F3800014601F0F3F8BDE8F0813A4901F0EEF816
:100F48004FF07E5101F0AEFB002889D020467FE7A4
:100F58003548BDE8F081FFF739FA344B04469D4225
:100F680014D8A3F5D0039D4232D94FF07E5101F039
:100F7800D3F84FF0010803464FF07E5120461C4637
:100F880016E0204601F0C8F8BDE8F081284B9D42E4
:100F980016D84FF07F5101F0BFF803464FF07F514C
:100FA80020464FF002081C4601F0C0F94FF07E5170
:100FB80001F0B4F80146204601F06CFA044651E706
:100FC80001461C4801F066FA4FF00308044649E759
:100FD800014601F0A3F84FF07E5101F09DF84FF063
:100FE800000803464FF080412046C8E7DB0FC93FA1
:100FF800FFFFDF3ED769853C59DA4B3D356B883DAD
:101008006E2EBA3D2549123EABAAAA3E21A215BDB5
:101018006BF16E3D95879D3D388EE33DCDCC4C3EC2
:10102800884A0008CAF24971DB0FC9BFFFFF973F22
:10103800FFFF1B40000080BF2DE9F04FDDB0C24C20
:10104800669D90469E46043203F1FF33814654F86C
:1010580025A009910193C0F22B83B8F1030348BF7F
:1010680008F10403DB1006930133DB000A930A9BA3
:101078000699A8EB03020EF1FF331AEB0307A1EB65
:1010880003051DD401370024DDF89CB12F4420AEA0
:101098000092CDF808E008E05BF8250001F0F2F8CE
:1010A8000135BD4246F8040B07D0002DF4DA20467E
:1010B8000135BD4246F8040BF7D1009ADDF808E087
:1010C800A9F10403BAF1000F0293B8BF4FEA8E09E1
:1010D8003ADB20A901EB8E0648AF4FEA8E090AEBEE
:1010E8000E01CDF800A0CDF81C90B246B9460F46C7
:1010F800CDE9048EDDF804B003EB8E050392019B65
:10110800002BB8BF00240FDBD0460024029E58F8FD
:10111800041D56F8040F01F009F90146204600F0B5
:10112800FDFFAE420446F2D10BF1010BBB4549F875
:10113800044B0AF1040AE2D1DDE90328DDF800A036
:10114800DDF814E0DDF81C90029BCDE903A203EB67
:1011580009050CAB03EB8A03043B07930CAB03EBC9
:101168008A03D1469A46CDF82C80CDF820E05CABB6
:1011780003EB8903B9F1000F53F850BC22DD0DF5DC
:1011880090780CAF08EB89064FF06E51584601F085
:10119800CDF801F0A7FA01F075F84FF08741044641
:1011A80001F0C4F80146584600F0B6FF01F09AFA7B
:1011B80056F8041D47F8040B204600F0AFFF4645DB
:1011C8008346E1D1DDF810805846414600F0E6FA42
:1011D8004FF07851044601F0A9F800F037FB4FF0C2
:1011E800824101F0A3F80146204600F095FF04462D
:1011F80001F078FA064601F045F8014620464446D3
:1012080000F08AFF002C074640F3878009F1FF3081
:101218000CAB53F82030C8F1080243FA02F101FA86
:1012280002F29B1A0CAA42F82030C8F1070243FACE
:1012380002F8B8F1000F0E4400F3978100213846F8
:1012480001F008FA002800F0D280039B9945D8BF26
:1012580009F180410EDD00220CAB09F1804103EB5E
:10126800890353F8040D534542EA0002F9D1002AD4
:1012780040F09981039B0CAA013B52F82330002BC4
:1012880040F08A810123079A52F8040D013300289F
:10129800FAD04B4409F10106089A00939144069A42
:1012A800CDF814A006EB020808F18048679A08F107
:1012B800FF3802EB880820AA02EB890748AA02EB4C
:1012C800810958F8040F00F0DDFF019B47F8040B73
:1012D800002B1ADBBB460024DDF808A05BF8041DD0
:1012E8005AF8040F01F022F80146204600F016FFD4
:1012F800AA450446F2D1009B0136B34249F8044F8F
:10130800DFDA9946DDF814A031E70024009B0136A6
:10131800B34249F8044FD4DAF3E740F01D8109F1EC
:10132800FF330CAA52F823304FEAE318B8F1000F44
:1013380084DDB9F1000F06F1010640F306820021B1
:10134800AC460C460CA812E0A84A000801318945B1
:1013580042F8045C40F32481136808300131C3F17A
:10136800FF0389454FF0010440F8043C0DDD0246B7
:1013780052F8043B002C40F0ED80C3F58075002B3B
:10138800E4D1013189451046F1DC6546049B002B08
:101398000FDD049B012B00F0F480022B09D109F129
:1013A800FF320CAB53F822300CA903F03F0341F88D
:1013B8002230B8F1020F7FF441AF39464FF07E502A
:1013C80000F0AAFE0746002C3FF438AF04994FF00E
:1013D8007E5000F0E3F90146384600F09DFE0746CE
:1013E8000021384601F036F900287FF42EAFCDF8F9
:1013F80004803846DDE90A38DDE903A2A3EB0801D9
:10140800009200F0CBF94FF08741044601F040F913
:10141800009A002800F0798108324FF06E5120467A
:10142800009200F083FF01F05DF900F02BFF4FF010
:101438008741074600F07AFF0146204600F06CFE1F
:1014480001F050F90CAB43F82900384601F04AF98D
:1014580009F101050CAB009A43F8250011464FF03D
:101468007E5000F09BF9002D8146C0F279814FF043
:101478006E576C1C0CAB03EB840848AB4FEA840B2B
:1014880003EB840458F8040D00F0FCFE494600F014
:101498004DFF03463946484644F8043D00F046FFF0
:1014A8000CAB98458146EDD14FF00009ABF108032C
:1014B80048AA13440DF1D00E9846CDE90265CDF83F
:1014C80010B04E46AB467346BAF1000FC0F2F58035
:1014D800C14600240027AD4D009301E0B7420DDC62
:1014E80059F8041F55F8040B00F020FF0146204668
:1014F80000F014FE0137BA450446EFDA009B0BF101
:10150800FF3BBBF1FF3F43F8044B06F10106A8F18E
:101518000408D9D1DDE90265669BDDF810B0022B1D
:101528005BDC002B00F3CB800FD1002034AB9B4455
:101538005BF8041D00F0F2FD34AB5B45F8D1019B6C
:101548000BB100F10040099B186006F007005DB080
:10155800BDE8F08F104601E74FF07C5101F098F894
:10156800002840F09380804668E6B9F1000FD8BFA4
:10157800002406F101063FF7E2AE049B012B7FF43D
:101588000CAF09F1FF320CAB53F822300CA903F071
:101598007F0341F822300CE709F1010633467BE668
:1015A80065460124F2E609F1FF350CAB53F8253006
:1015B800DDE903A2CDF80480083A002B7FF44EAF92
:1015C80009F18043013B0CA901EB830353F8041D87
:1015D800013D083A0029F9D040E7669B032BB4D1B6
:1015E800002D00F0CA8034AB03EB850AD34653F8CC
:1015F8002540AF005BF8049C2046494600F08EFD6C
:10160800A04604464846214600F086FD414600F0C3
:1016180085FD34ABCBF800004BF8044D9B45E9D170
:10162800012D00F0AA8034AB53F825401D1D5AF84F
:10163800049C2046494600F071FDA04604464846F1
:10164800214600F069FD414600F068FDCAF8000037
:101658004AF8044D5545EAD1002034AB3C1D1C44E2
:1016680003F1080854F8041D00F058FDA045F9D10D
:101678000199349A359B002951D109990A604B6028
:10168800886006F007005DB0BDE8F08FB9F1000F83
:10169800C8BF4FF0020806F101063FF750AE3946C1
:1016A8004FF07E5000F038FD4FF002080746C5E5C0
:1016B80008230A9300230693D9E400241FE7002097
:1016C80034AB9B445BF8041D00F028FD34AB5B454C
:1016D800F8D1019B73BB099B01461860349800F050
:1016E8001BFD5DB101275BF8041F013700F016FDF3
:1016F800BD42F8DA019B0BB100F10040099B58602C
:1017080006F007005DB0BDE8F08F2046009200F0BB
:10171800E9FF0CAB4D46009A43F829009EE609996B
:1017280002F1004203F1004300F100400A604B60FF
:101738008860A6E7099A00F10043014613603498CF
:1017480000F0EAFC002DCDD1D6E7B8F1020F7FF406
:1017580075AD01464FF07E5000F0DEFC07466DE5A2
:10176800669B022B05DC002B09DC7FF4EEAE002023
:10177800E5E6669B032B7FF4E8AE002078E7019B43
:1017880033B90023099A34981360B7E7B44A0008BC
:101798004FF00043099A34981360ADE710B50C4632
:1017A80030F0004103461DD0B1F1FF4F1BD210F0BD
:1017B800FF4F02461BD14FF0984100F0B7FD204A79
:1017C800034694422CDBC0F3C75102464CF250301A
:1017D8008442A1F1190110DD18461A4961F31E006F
:1017E80000F0A4FD10BD014600F098FC10BD4CF2BD
:1017F800503084424FEAD151EEDC2144FE29EBDC23
:10180800002911DC11F1160F13DB01F1190022F088
:10181800FF424FF04C5142EAC05000F087FD10BD26
:10182800094900F083FD10BD22F0FF4242EAC15091
:1018380010BD1846044961F31E0000F077FD10BD85
:10184800B03CFFFFCAF249716042A20D2DE9F04198
:10185800C0F3C7557F3D162D044620F0004725DC10
:10186800002D804614DB184F2F4138421BD01749F2
:1018780000F054FC002100F015FFA0B1002C03DAA1
:101888004FF400032B41984428EA0700BDE8F08193
:101898000E4900F043FC002100F004FF18B1002CB1
:1018A8000CDB002000E02046BDE8F081B7F1FF4FD7
:1018B800F9D3014600F032FCBDE8F08117B94FF0CA
:1018C8000040F1E70248EFE7FFFF7F00CAF24971E5
:1018D800000080BF81F0004102E000BF83F00043B8
:1018E80030B54FEA41044FEA430594EA050F08BFB3
:1018F80090EA020F1FBF54EA000C55EA020C7FEA77
:10190800645C7FEA655C00F0E2804FEA5454D4EBF3
:101918005555B8BF6D420CDD2C4480EA020281EABD
:10192800030382EA000083EA010180EA020281EAF5
:101938000303362D88BF30BD11F0004F4FEA013147
:101948004FF4801C4CEA113102D0404261EB410156
:1019580013F0004F4FEA03334CEA133302D05242DC
:1019680063EB430394EA050F00F0A780A4F1010498
:10197800D5F1200E0DDB02FA0EFC22FA05F28018D2
:1019880041F1000103FA0EF2801843FA05F35941B8
:101998000EE0A5F120050EF1200E012A03FA0EFC37
:1019A80028BF4CF0020C43FA05F3C01851EBE37161
:1019B80001F0004507D54FF0000EDCF1000C7EEB7E
:1019C80000006EEB0101B1F5801F1BD3B1F5001FBC
:1019D8000CD349085FEA30004FEA3C0C04F10104DB
:1019E8004FEA445212F5800F80F09A80BCF1004F04
:1019F80008BF5FEA500C50F1000041EB045141EA86
:101A0800050130BD5FEA4C0C404141EB0101013C4E
:101A180028BFB1F5801FE9D291F0000F04BF01463D
:101A28000020B1FA81F308BF2033A3F10B03B3F10F
:101A380020020CDA0C3208DD02F1140CC2F10C029F
:101A480001FA0CF021FA02F10CE002F11402D8BFFD
:101A5800C2F1200C01FA02F120FA0CFCDCBF41EAC9
:101A68000C019040E41AA2BF01EB0451294330BD98
:101A78006FEA04041F3C1CDA0C340EDC04F1140475
:101A8800C4F1200220FA04F001FA02F340EA03004C
:101A980021FA04F345EA030130BDC4F10C04C4F192
:101AA800200220FA02F001FA04F340EA0300294672
:101AB80030BD21FA04F0294630BD94F0000F83F4BC
:101AC800801306BF81F480110134013D4EE77FEA9F
:101AD800645C18BF7FEA655C29D094EA050F08BFEB
:101AE80090EA020F05D054EA000C04BF19461046CC
:101AF80030BD91EA030F1EBF0021002030BD5FEA10
:101B0800545C05D14000494128BF41F0004130BD37
:101B180014F580043CBF01F5801130BD01F000458B
:101B280045F0FE4141F470014FF0000030BD7FEAFE
:101B3800645C1ABF194610467FEA655C1CBF0B46F9
:101B4800024650EA013406BF52EA033591EA030F10
:101B580041F4002130BD00BF90F0000F04BF002108
:101B6800704730B54FF4806404F132044FF000053B
:101B78004FF0000150E700BF90F0000F04BF0021B4
:101B8800704730B54FF4806404F1320410F000451A
:101B980048BF40424FF000013EE700BF42004FEA15
:101BA800E2014FEA31014FEA02701FBF12F07F4392
:101BB80093F07F4F81F06051704732F07F4208BF49
:101BC800704793F07F4F04BF41F40021704730B550
:101BD8004FF4607401F0004521F000411CE700BF9C
:101BE80050EA010208BF704730B54FF000050AE01F
:101BF80050EA010208BF704730B511F0004502D520
:101C0800404261EB41014FF4806404F132045FEA21
:101C1800915C3FF4D8AE4FF003025FEADC0C18BFCA
:101C280003325FEADC0C18BF033202EBDC02C2F1BC
:101C3800200300FA03FC20FA02F001FA03FE40EA4E
:101C48000E0021FA02F11444BDE600BF70B54FF052
:101C5800FF0C4CF4E06C1CEA11541DBF1CEA135530
:101C680094EA0C0F95EA0C0F00F0DEF82C4481EA98
:101C7800030621EA4C5123EA4C5350EA013518BFB8
:101C880052EA033541F4801143F4801338D0A0FBA5
:101C980002CE4FF00005E1FB02E506F00042E0FB52
:101CA80003E54FF00006E1FB03569CF0000F18BF58
:101CB8004EF0010EA4F1FF04B6F5007F64F5407400
:101CC80004D25FEA4E0E6D4146EB060642EAC62193
:101CD80041EA55514FEAC52040EA5E504FEACE2E00
:101CE800B4F1FD0C88BFBCF5E06F1ED8BEF1004F03
:101CF80008BF5FEA500E50F1000041EB045170BD7F
:101D080006F0004646EA010140EA020081EA0301C2
:101D1800B4EB5C04C2BFD4EB0C0541EA045170BDBE
:101D280041F480114FF0000E013C00F3AB8014F138
:101D3800360FDEBF002001F0004170BDC4F1000481
:101D4800203C35DA0C341BDC04F11404C4F1200502
:101D580000FA05F320FA04F001FA05F240EA02005D
:101D680001F0004221F0004110EBD37021FA04F693
:101D780042EB06015EEA430E08BF20EAD37070BD4D
:101D8800C4F10C04C4F1200500FA04F320FA05F0AC
:101D980001FA04F240EA020001F0004110EBD370AE
:101DA80041F100015EEA430E08BF20EAD37070BD1E
:101DB800C4F1200500FA05F24EEA020E20FA04F3F7
:101DC80001FA05F243EA020321FA04F001F00041A6
:101DD80021FA04F220EA020000EBD3705EEA430E17
:101DE80008BF20EAD37070BD94F0000F0FD101F046
:101DF8000046400041EB010111F4801F08BF013C7F
:101E0800F7D041EA060195F0000F18BF704703F0BC
:101E18000046520043EB030313F4801F08BF013D43
:101E2800F7D043EA0603704794EA0C0F0CEA1355FF
:101E380018BF95EA0C0F0CD050EA410618BF52EAB9
:101E48004306D1D181EA030101F000414FF00000BF
:101E580070BD50EA410606BF1046194652EA4306CD
:101E680019D094EA0C0F02D150EA013613D195EA41
:101E78000C0F05D152EA03361CBF104619460AD189
:101E880081EA030101F0004141F0FE4141F4700193
:101E98004FF0000070BD41F0FE4141F4780170BD83
:101EA80070B54FF0FF0C4CF4E06C1CEA11541DBFE8
:101EB8001CEA135594EA0C0F95EA0C0F00F0A7F8EA
:101EC800A4EB050481EA030E52EA03354FEA013117
:101ED80000F088804FEA03334FF0805545EA13132A
:101EE80043EA12634FEA022245EA111545EA1065F2
:101EF8004FEA00260EF000419D4208BF964244F189
:101F0800FD0404F5407402D25B084FEA3202B61AA7
:101F180065EB03055B084FEA32024FF480104FF47B
:101F2800002CB6EB020E75EB030E22BFB61A7546EF
:101F380040EA0C005B084FEA3202B6EB020E75EB82
:101F4800030E22BFB61A754640EA5C005B084FEAEA
:101F58003202B6EB020E75EB030E22BFB61A7546B7
:101F680040EA9C005B084FEA3202B6EB020E75EBC2
:101F7800030E22BFB61A754640EADC0055EA060E83
:101F880018D04FEA051545EA16754FEA06164FEAC6
:101F9800C30343EA52734FEAC2025FEA1C1CC0D172
:101FA80011F4801F0BD141EA00014FF000004FF0FF
:101FB800004CB6E711F4801F04BF01430020B4F1C0
:101FC800FD0C88BFBCF5E06F3FF6AFAEB5EB030C78
:101FD80004BFB6EB020C5FEA500C50F1000041EB75
:101FE800045170BD0EF0004E4EEA113114EB5C0442
:101FF800C2BFD4EB0C0541EA045170BD41F4801115
:102008004FF0000E013C90E645EA060E8DE60CEA1C
:10201800135594EA0C0F08BF95EA0C0F3FF43BAF39
:1020280094EA0C0F0AD150EA01347FF434AF95EAF0
:102038000C0F7FF425AF104619462CE795EA0C0FD4
:1020480006D152EA03353FF4FDAE1046194622E7A1
:1020580050EA410618BF52EA43067FF4C5AE50EA7B
:1020680041047FF40DAF52EA43057FF4EBAE12E76B
:102078004FEA4102B2F1E04324BFB3F5001CDCF1A2
:10208800FE5C0DD901F0004C4FEAC0024CEA5070DA
:10209800B2F1004F40EB830008BF20F00100704709
:1020A80011F0804F21D113F13872BCBF01F000400C
:1020B800704741F480114FEA5252C2F11802C2F13E
:1020C800200C10FA0CF320FA02F018BF40F00100BF
:1020D8004FEAC1234FEAD32303FA0CFC40EA0C0071
:1020E80023FA02F34FEA4303CCE77FEA625307D1AE
:1020F80050EA01331EBF4FF0FE4040F440007047E5
:1021080001F0004040F0FE4040F40000704700BF7E
:1021180080F0004002E000BF81F0004142001FBF94
:102128005FEA410392EA030F7FEA226C7FEA236C9D
:102138006AD04FEA1262D2EB1363C1BFD218414092
:1021480048404140B8BF5B42192B88BF704710F028
:10215800004F40F4000020F07F4018BF404211F0CB
:10216800004F41F4000121F07F4118BF494292EA33
:10217800030F3FD0A2F1010241FA03FC10EB0C005F
:10218800C3F1200301FA03F100F0004302D54942EC
:1021980060EB4000B0F5000F13D3B0F1807F06D399
:1021A80040084FEA310102F10102FE2A51D2B1F191
:1021B800004F40EBC25008BF20F0010040EA030086
:1021C8007047490040EB0000013A28BFB0F5000F06
:1021D800EDD2B0FA80FCACF1080CB2EB0C0200FABC
:1021E8000CF0AABF00EBC25052421843BCBFD0400B
:1021F8001843704792F0000F81F4000106BF80F485
:1022080000000132013BB5E74FEA41037FEA226C47
:1022180018BF7FEA236C21D092EA030F04D092F012
:10222800000F08BF0846704790EA010F1CBF002046
:10223800704712F07F4F04D1400028BF40F00040A3
:10224800704712F100723CBF00F50000704700F0C3
:10225800004343F0FE4040F4000070477FEA2262EA
:1022680016BF08467FEA23630146420206BF5FEABB
:10227800412390EA010F40F4800070474FF00003BB
:1022880004E000BF10F0004348BF40425FEA000C82
:1022980008BF704743F0964301464FF000001CE02A
:1022A80050EA010208BF70474FF000030AE000BF80
:1022B80050EA010208BF704711F0004302D54042BE
:1022C80061EB41015FEA010C02BF84460146002030
:1022D80043F0B64308BFA3F18053A3F50003BCFA4B
:1022E8008CF2083AA3EBC25310DB01FA02FC6344F8
:1022F80000FA02FCC2F12002BCF1004F20FA02F2FF
:1023080043EB020008BF20F00100704702F12002F1
:1023180001FA02FCC2F1200250EA4C0021FA02F252
:1023280043EB020008BF20EADC7070474FF0FF0C57
:102338001CEAD0521EBF1CEAD15392EA0C0F93EA52
:102348000C0F6FD01A4480EA010C400218BF5FEAF4
:1023580041211ED04FF0006343EA501043EA511167
:10236800A0FB01310CF00040B1F5000F3EBF490061
:1023780041EAD3715B0040EA010062F17F02FD2A65
:102388001DD8B3F1004F40EBC25008BF20F0010048
:10239800704790F0000F0CF0004C08BF49024CEA5F
:1023A800502040EA51207F3AC2BFD2F1FF0340EAF1
:1023B800C250704740F400004FF00003013A5DDC62
:1023C80012F1190FDCBF00F000407047C2F10002A3
:1023D800410021FA02F1C2F1200200FA02FC5FEA90
:1023E800310040F1000053EA4C0308BF20EADC70DA
:1023F800704792F0000F00F0004C02BF400010F44C
:10240800000F013AF9D040EA0C0093F0000F01F0F8
:10241800004C02BF490011F4000F013BF9D041EA1A
:102428000C018FE70CEAD15392EA0C0F18BF93EA1C
:102438000C0F0AD030F0004C18BF31F0004CD8D146
:1024480080EA010000F00040704790F0000F17BFCD
:1024580090F0004F084691F0000F91F0004F14D013
:1024680092EA0C0F01D142020FD193EA0C0F03D16B
:102478004B0218BF084608D180EA010000F000406E
:1024880040F0FE4040F40000704740F0FE4040F449
:10249800400070474FF0FF0C1CEAD0521EBF1CEAE8
:1024A800D15392EA0C0F93EA0C0F69D0A2EB030206
:1024B80080EA010C49024FEA402037D04FF08053A0
:1024C80043EA111143EA10130CF000408B4238BF65
:1024D8005B0042F17D024FF4000C8B4224BF5B1A73
:1024E80040EA0C00B3EB510F24BFA3EB510340EAC1
:1024F8005C00B3EB910F24BFA3EB910340EA9C006F
:10250800B3EBD10F24BFA3EBD10340EADC001B01DE
:1025180018BF5FEA1C1CE0D1FD2A3FF650AF8B4282
:1025280040EBC25008BF20F0010070470CF0004C8F
:102538004CEA50207F32C2BFD2F1FF0340EAC250BA
:10254800704740F400004FF00003013A37E792F07B
:10255800000F00F0004C02BF400010F4000F013AD9
:10256800F9D040EA0C0093F0000F01F0004C02BFD4
:10257800490011F4000F013BF9D041EA0C0195E73D
:102588000CEAD15392EA0C0F08D142027FF47DAFD6
:1025980093EA0C0F7FF470AF084676E793EA0C0FC6
:1025A80004D14B023FF44CAF08466EE730F0004CC4
:1025B80018BF31F0004CCAD130F000427FF45CAF54
:1025C80031F000437FF43CAF5FE700BF4FF0FF3CC2
:1025D80006E000BF4FF0010C02E000BF4FF0010C15
:1025E8004DF804CD4FEA40024FEA41037FEA226CDE
:1025F80018BF7FEA236C11D001B052EA530C18BF00
:1026080090EA010F58BFB2EB030088BFC81738BF64
:102618006FEAE17018BF40F0010070477FEA226C52
:1026280002D15FEA402C05D17FEA236CE4D15FEA4E
:10263800412CE1D05DF8040B704700BF8446084682
:102648006146FFE70FB5FFF7C9FF002848BF10F143
:10265800000F0FBD4DF808EDFFF7F4FF0CBF012088
:1026680000205DF808FB00BF4DF808EDFFF7EAFF12
:1026780034BF012000205DF808FB00BF4DF808EDCD
:10268800FFF7E0FF94BF012000205DF808FB00BFC2
:102698004DF808EDFFF7D2FF94BF012000205DF848
:1026A80008FB00BF4DF808EDFFF7C8FF34BF012055
:1026B80000205DF808FB00BF4FEA40024FEA4103E3
:1026C8007FEA226C02D15FEA402C08D17FEA236CB2
:1026D80002D15FEA412C02D14FF0000070474FF061
:1026E800010070474FEA4002B2F1FE4F0FD34FF09E
:1026F8009E03B3EB12620DD94FEA002343F0004367
:1027080010F0004F23FA02F018BF404270474FF014
:102718000000704712F1610F01D1420205D110F09B
:10272800004008BF6FF0004070474FF0000070474E
:1027380010B5054C237833B9044B13B10448AFF3F3
:1027480000800123237010BDA001002000000000BC
:10275800C046000808B5034B1BB103490348AFF353
:10276800008008BD00000000A4010020C046000849
:1027780030B58BB0264C4FF0FF3502950E230193F0
:1027880006AB009301233B22D021204601F08EF8AE
:1027980002950223019305AB009301232F22D02138
:1027A800204601F083F89DF818309DF8192042EA78
:1027B8000322184B1A809DF81A109DF81B2042EA34
:1027C80001225A809DF81C109DF81D2042EA012222
:1027D8009A809DF820109DF8212042EA0122DA8093
:1027E8009DF822109DF8232042EA01221A819DF8C3
:1027F80024109DF8252042EA01225A819DF81410E0
:102808009DF8152042EA01225A820BB030BD00BF64
:1028180084020020700200202DE9F04F83B00646A4
:102828000D46144698463C4B1F68632F39DC37B970
:1028380000233A4A13603A4A13603A4A1360304612
:10284800FFF720FD3849FFF725FEDFF8D090D9F8CB
:102858000010FFF763FC8246C9F800002846FFF71E
:1028680011FD3149FFF716FEDFF8B4B0DBF80010B0
:10287800FFF754FC8146CBF800002046FFF702FD25
:102888002949FFF707FEDFF89CB0DBF80010FFF7D7
:1028980045FC0190CBF8000001371F4B1F60642FE7
:1028A80026D03046FFF7EEFC1F49FFF7F3FD1B4B20
:1028B8001968FFF731FCC8F800002846FFF7E2FC6A
:1028C8001949FFF7E7FD164B1968FFF725FC0C9B24
:1028D80018602046FFF7D6FC1349FFF7DBFD114BC4
:1028E8001968FFF719FC0D9B186003B0BDE8F08F5D
:1028F8000E495046FFF7CEFD084B18600B49484675
:10290800FFF7C8FD064B186008490198FFF7C2FD9C
:10291800CBF80000C5E700BFC8010020C4010020B3
:10292800C0010020BC010020000003430000C84291
:102938002DE9F8430446076839463846FFF7F6FCA0
:102948000546666831463046FFF7F0FC01462846E2
:10295800FFF7E4FB0546D4F8088041464046FFF7F8
:10296800E5FC01462846FFF7D9FB0546D4F80C904C
:1029780049464846FFF7DAFC01462846FFF7CEFBF2
:10298800FDF7CEFC05461149FFF76EFE40B14FF04A
:102998007E5323600023E360A3606360BDE8F8838F
:1029A80029463846FFF776FD206029463046FFF76E
:1029B80071FD606029464046FFF76CFDA06029461E
:1029C8004846FFF767FDE060E8E700BFBD3786359A
:1029D8002DE9F04F83B004460E469346D1F800A087
:1029E800156829465046FFF7A1FC0746D6F804802B
:1029F800DBF80430009319464046FFF797FC014680
:102A08003846FFF789FB0190B768DBF8089049461C
:102A18003846FFF78BFC01460198FFF77DFB0190D4
:102A2800F668DBF80CB059463046FFF77FFC0146E4
:102A38000198FFF771FB206000995046FFF776FC7C
:102A4800019041462846FFF771FC01460198FFF7BF
:102A580065FB019059463846FFF768FC0146019826
:102A6800FFF75CFB019031464846FFF75FFC0146E3
:102A78000198FFF751FB606049465046FFF756FC46
:102A8800019059464046FFF751FC01460198FFF76F
:102A980043FB019039462846FFF748FC0146019858
:102AA800FFF73CFB019031460098FFF73FFC0146D9
:102AB8000198FFF733FBA06059465046FFF736FCF4
:102AC800824649464046FFF731FC01465046FFF72B
:102AD80025FB804639460098FFF728FC014640460A
:102AE800FFF71AFB074631462846FFF71FFC014649
:102AF8003846FFF713FBE060204603B0BDE8F08FCF
:102B08002DE9F0438FB00446084611461A460BAB30
:102B180001930CAB00930DABFFF77EFE0D98FFF70A
:102B28003DF847A3D3E90023FFF790F80022464B6E
:102B3800FFF7B6F9FFF79CFA07460C98FFF72EF84F
:102B48003FA3D3E90023FFF781F800223E4BFFF7AC
:102B5800A7F9FFF78DFA06460B98FFF71FF838A379
:102B6800D3E90023FFF772F80022374BFFF798F9F3
:102B7800FFF77EFA80464FF07C511698FFF7D6FB98
:102B8800054601463846FFF7D1FB07462946304639
:102B9800FFF7CCFB064629464046FFF7C7FB05462C
:102BA80039463846FFF7C2FB804631463046FFF7C4
:102BB800BDFB01464046FFF7B1FA80462946284644
:102BC800FFF7B4FB01464046FFF7A8FAFDF7A8FB5C
:102BD80080461E49FFF748FDA8B14FF07E53079382
:102BE800089709960A9502AD07AA21462846FFF7D5
:102BF800EFFE95E80F0084E80F002046FFF798FEE7
:102C08000FB0BDE8F0834046FDF7E4FB4146FFF70F
:102C180041FC81464046FDF7A1FB079049463846EE
:102C2800FFF784FB089049463046FFF77FFB099081
:102C380049462846FFF77AFB0A90D4E7AFF30080AD
:102C48004AD8124DFB21094000806640BD378635C1
:102C58002DE9F0470446884617461E46D0F80490EA
:102C680049460068FFF762FB0546D4F808A0E1680A
:102C78005046FFF75BFB01462846FFF74FFA05462B
:102C880049464846FFF752FB814651465046FFF7F2
:102C98004DFB01464846FFF741FA0146FFF73EFA69
:102CA80001464FF07E50FFF737FA814629462846FD
:102CB800FFF734FA4946FDF731FB3749FFF736FB92
:102CC800FEF76CFF32A3D3E90023FFF7E9F8FFF71B
:102CD800CFF9C8F80000A1682068FFF727FB054670
:102CE8006168E068FFF722FB01462846FFF714FAFF
:102CF8000146FFF713FAFDF7F1FA2749FFF716FB2C
:102D0800FEF74CFF22A3D3E90023FFF7C9F8FFF72A
:102D1800AFF93860E76839462068FFF707FB804657
:102D2800A56829466068FFF701FB01464046FFF7A2
:102D3800F5F9044629462846FFF7F8FA05463946C4
:102D48003846FFF7F3FA01462846FFF7E7F9014648
:102D5800FFF7E4F901464FF07E50FFF7DDF905462D
:102D680021462046FFF7DAF92946FDF7D7FA0A493E
:102D7800FFF7DCFAFEF712FF05A3D3E90023FFF7FC
:102D88008FF8FFF775F93060BDE8F087AFF3008082
:102D98004AD8124DFB2109400000344300B54FF0DA
:102DA800000CC0F800C0C0F804C04FF07E5EC0F848
:102DB80008E0C0F80CC0C0F810C0C0F814E0816189
:102DC800C26103625DF804FB2DE9F04F87B0044649
:102DD80002911F460568D0F8049049461046FFF74F
:102DE8009BF93946FFF7A2FA01462846FFF796F9FC
:102DF80080462060A568D4F814A039465046FFF7ED
:102E080095FA0190E6683146FFF786F9D4F810B0D4
:102E18005946FFF781F9A169FFF780F93946FFF7AD
:102E280085FA01462846FFF779F90546A060019919
:102E38003046FFF771F90646E06001995846FFF7FA
:102E48006BF9834620613946E069FFF76FFA01465E
:102E58005046FFF763F90390606141460298FFF717
:102E68005BF90190216A2846FFF758F907460146A1
:102E78002846FFF70FFB8246049039465846FFF76D
:102E880009FB0746059001995046FFF74FFA01469E
:102E98004046FFF743F98046206001993846FFF71E
:102EA80045FA01464846FFF739F960605146284619
:102EB800FFF73CFA01462846FFF72EF9A060514675
:102EC8003046FFF733FA01463046FFF725F9E06050
:102ED80039462846FFF72AFA01465846FFF71CF9F3
:102EE800206139463046FFF721FA01460398FFF77B
:102EF80013F96061404607B0BDE8F08F000000009C
:102F08002DE9F04180460F462B4DB5F90000FFF73B
:102F1800B9F94FF06251FFF709FA0446B5F9020012
:102F2800FFF7B0F94FF06251FFF700FA0646B5F91E
:102F38000400FFF7A7F94FF06251FFF7F7F90546CC
:102F480001463046FDF7EAF91C49FFF7EFF9FEF7AD
:102F580025FE17A3D3E90023FEF7A2FFFFF788F8A1
:102F6800C8F8000031463046FFF7E0F90646294622
:102F78002846FFF7DBF901463046FFF7CFF8FDF7A3
:102F8800CFF9014604F10040FDF7C8F90B49FFF7F6
:102F9800CDF9FEF703FE06A3D3E90023FEF780FF71
:102FA800FFF766F83860BDE8F08100BFAFF3008036
:102FB8004AD8124DFB21094070020020000034431A
:102FC800F8B504460E46069F056819461046FFF7F1
:102FD800ADF901462846FFF7A1F83946FFF7A6F9EB
:102FE800054639464FF07E50FFF796F83146FFF711
:102FF8009DF901462846FFF791F82060F8BD72B6A2
:10300800FEE700B591B02822002106A8FDF7E8F8F0
:1030180000230193029303930493059301220692DC
:103028004FF4803307930A9202220D920E934FF4C5
:10303800E0130F9306A800F05BFE80B90F230193FD
:1030480002210291002303934FF4806204920593B6
:1030580001A801F07FF820B911B05DF804FBFFF773
:10306800CEFFFFF7CCFF0000F0B589B000F0F2FD0D
:10307800FFF7C7FF00F0AEF800F0CEF8482001F0E7
:10308800BDFA404E404D414C33462A462146404801
:10309800FFF784FE33462A4621463E48FFF77EFE68
:1030A80033462A4621463C48FFF778FE00233B4A30
:1030B80013603B4A13603B4A13603B4A4FF07E5112
:1030C8001160D36093605360384801F0B3FA384D0B
:1030D8002860FFF74DFB374C05AB019304AB009319
:1030E80003ABB4F90A20B4F90810B4F90600FFF7E5
:1030F80093FB2D4E2B680093B4F90A30B4F90820DD
:10310800B4F906103046FFF7FBFC2B4F3B462B4A21
:103118002B493046FFF79CFD07A906A8FFF7F0FEEC
:10312800B4F90600FFF7AEF82649FFF7B3F90646EB
:10313800B4F90800FFF7A6F82249FFF7ABF90446EF
:103148002B68324606991248FFF73EFE1E4E306045
:103158002B68224607990F48FFF736FE1B4C206064
:103168001B4B00932B68059A39680C48FFF728FF1A
:1031780032680C4B1A602268094B1A600A2000F06A
:103188008DFDA1E78FC2F53CA69B443B6F12833AA5
:103198004C0200200402002028020020E001002048
:1031A800E4010020E8010020F4010020F0010020E3
:1031B800EC01002070020020D4010020DC01002076
:1031C800D801002000000343D0010020CC010020DA
:1031D8003333733F84B00F4B9A6942F020029A61EF
:1031E8009A6902F020020192019A9A6942F0040257
:1031F8009A619A6902F004020292029A9A6942F06C
:1032080008029A619B6903F008030393039B04B0C7
:10321800704700BF0010024008B50B480B4B036015
:103228000B4B436000238360C3604FF4804202610C
:1032380043618361C361036200F05AFA00B908BDB3
:10324800FFF7DDFEFBE700BF8402002000540040CA
:10325800A086010010B586B000230293039304935F
:1032680005930268114B9A4201D006B010BD104C6C
:10327800A36943F00803A361A36903F0080300935B
:10328800009BC0230293122303930323059302A9EF
:10329800084801F02BF8E36943F40013E361E3699C
:1032A80003F400130193019BDFE700BF00540040C3
:1032B80000100240000C0140FEE7FEE7FEE7FEE7D3
:1032C800FEE770477047704708B500F0D5FC08BDA9
:1032D80082B00E4B9A6942F001029A619A6902F033
:1032E80001020092009ADA6942F08052DA61DB69E1
:1032F80003F080530193019B054A536823F0E06370
:1033080043F00073536002B0704700BF00100240E2
:103318000000014003685A6912F4806F01D100204F
:1033280070476FF480625A6100230363202280F89B
:103338003D2080F83E30026C42F00402026480F8BE
:103348003C30012070472DE9F04106460C461746EF
:1033580098463BE000F09CFC069BC01A404502D80A
:10336800B8F1000F32D1012D18D033689B6924EAD7
:1033780003039BB2B3FA83F35B099F4226D1002370
:103388003363202286F83D2086F83E30326C42F0C6
:103398002002326486F83C30012027E033685B69FC
:1033A80024EA03039BB2B3FA83F35B09E5E73368C6
:1033B8005B6924EA030C1FFA8CFCBCFA8CFC4FEA0C
:1033C8005C1C674511D1B8F1FF3FC3D1C4F3074571
:1033D800012DECD033689B6924EA030C1FFA8CFC9E
:1033E800BCFA8CFC4FEA5C1CEBE70020BDE8F081DE
:1033F8002DE9F84305460E469046994653E01A686B
:1034080042F400721A602B686FF480625A610023DC
:103418002B63202285F83D2085F83E302A6C42F047
:1034280004022A6485F83C3001204AE000F030FCB0
:10343800A0EB0900404502D8B8F1000F33D1012FA5
:1034480017D02B689B6926EA03039BB2003B18BF81
:10345800012343B300232B63202285F83D2085F800
:103468003E302A6C42F020022A6485F83C30012064
:1034780027E02B685B6926EA03039BB2003B18BF71
:103488000123E6E72B689C6926EA0404A4B2003C01
:1034980018BF0124A4B12B685A6912F4806FAED109
:1034A800B8F1FF3FC2D1C6F30747012FEAD12B6815
:1034B8005C6926EA0404A4B2003C18BF0124E9E7C9
:1034C8000020BDE8F88370B504460D46164623680B
:1034D8005B6913F0800F21D12046FFF71BFFF8B975
:1034E800B5F1FF3FF3D000F0D3FB801BA84201D811
:1034F800002DECD123685B6913F0800FE7D100231E
:103508002363202284F83D2084F83E30226C42F068
:103518002002226484F83C30012000E0002070BDC5
:103528000120FCE72DE9F04784B004460D46164615
:1035380099460C9FDDF834800268136843F4806371
:1035480013600368196841F480711960CDF8008030
:103558003B4600224FF00111FFF7F5FE70B95FFA04
:1035680085FA236805F0FE051D6143463A46414940
:103578002046FFF73DFF68B1012008E023681B687B
:1035880013F4807F02D04FF400732364032004B047
:10359800BDE8F0870023039323685A6903929B6967
:1035A8000393039B424639462046FFF78CFF80B9B8
:1035B800B9F1010F18D12368F6B21E6142463946A7
:1035C8002046FFF780FF68B3236C042B24D001202A
:1035D800DDE7236C042B01D00120D8E722681368AB
:1035E80043F400731360F7E72368320A1A6142460E
:1035F80039462046FFF767FF18B92368F6B21E61FF
:10360800DCE7236C042B01D00120C0E72268136893
:1036180043F400731360F7E72268136843F40073F8
:103628001360D4E72268136843F480731360CDF8FD
:1036380000803B4600224FF001112046FFF783FE31
:1036480068B922684AF00103136143463A460949BA
:103658002046FFF7CDFE002899D0012097E7236880
:103668001B6813F4807F02D04FF400732364032097
:103678008DE700BF0200010070B504460D461646EE
:1036880014E06FF010025A6100232363202284F8AB
:103698003D2084F83E30226C226484F83C300120BE
:1036A80025E023685B6913F0400F10D02368586940
:1036B80010F0400F1AD1586910F0100FE1D100F046
:1036C800E7FA801BA842ECD8002DEFD1E9E70023E8
:1036D8002363202284F83D2084F83E30226C42F097
:1036E8002002226484F83C30012000E0002070BDF4
:1036F800002800F0CC8070B5044690F83D30002BCF
:1037080077D0242384F83D302268136823F001031E
:1037180013602268136843F4004313602268136837
:1037280023F40043136000F0D1FD62685A4B9A42BB
:1037380064D85A4B98428CBF00230123002B40F0D9
:10374800A8805749A1FB00318B0C25686A6822F0D4
:103758003F0242EA91426A6021680A6A22F03F0207
:1037680066684D4DAE424FD8013313430B62216852
:10377800CA6922F44F4222F0FF026568464B9D4217
:103788004CD8431E6D00B3FBF5F3013340F6FC70D3
:10379800034278D0C3F30B031A43CA6121680B684C
:1037A80023F0C003E269206A024313430B602168D7
:1037B8008B6823F4034323F0FF032269E068024384
:1037C80013438B602168CB6823F0FF036269A0690B
:1037D80002431343CB602268136843F0010313606C
:1037E80000202064202384F83D30206384F83E00C4
:1037F80070BD80F83C30FFF72DFD82E7294B9842D9
:103808008CBF0023012399E74FF4967505FB03F35A
:10381800254DA5FB03539B090133A6E7A668BEB94E
:10382800431E05EB450CB3FBFCF30133C3F30B0359
:10383800B3FA83F35B0943BBC6B9431E05EB4505E1
:10384800B3FBF5F30133C3F30B0343F40043A3E7DE
:10385800431E05EB850C0CEB8C0CB3FBFCF301331E
:10386800C3F30B03B3FA83F35B09E4E7431E05EBE9
:10387800850505EB8505B3FBF5F30133C3F30B03AE
:1038880043F4404388E7042386E7012384E70120C3
:1038980070470120ACE700BFA08601007F841E00AE
:1038A80083DE1B43FF083D00D34D62102DE9F04332
:1038B80089B004460F4690469946129E0023079306
:1038C80000F0E6F9054694F83D00C0B2202804D07F
:1038D8000227384609B0BDE8F08300951923012274
:1038E80081492046FFF72FFD002840F07C8194F89D
:1038F8003C30012B00F07981012384F83C302368A7
:103908001A6812F0010F03D11A6842F001021A6016
:103918002268136823F400631360222384F83D307F
:10392800402384F83E3000232364109B6362BDF873
:1039380044306385638D23856C4BE3620195009663
:103948004B46424639462046FFF7ECFD074600281D
:1039580040F04D81238D5BB9039323685A69039224
:103968009A690392039A1A6842F400721A60F2E0A4
:10397800012B0FD0022B21D02268136843F48063F7
:1039880013600023069323685A6906929B6906937D
:10399800069BE0E02268136823F48063136072B624
:1039A8000023049323685A6904929A690492049A3A
:1039B8001A6842F400721A6062B6CCE02268136892
:1039C80043F40063136072B60023059323685A69B1
:1039D80005929A690592059A1A6822F480621A601B
:1039E80062B6B8E02A4631462046FFF745FE002871
:1039F80040F0FF8023681A69636A1A70636A0133AA
:103A08006362238D013B2385638D9BB2013B9BB28F
:103A18006385A0E000953346002235492046FFF72C
:103A280092FC002840F0E9802268136823F4806340
:103A3800136072B623681A69636A1A70636A01337D
:103A48006362238D013B2385638D9BB2013B9BB24F
:103A58006385284B1B68DB08274AA2FB03231B0A44
:103A680003EB8303C3EBC3030793079B013B079354
:103A7800079B002B28D023685A6912F0040FF4D052
:103A88001A6842F400721A6023681A69636A1A7025
:103A9800636A01336362238D013B2385638D9BB287
:103AA800013B9BB2638562B623681A69636A1A7020
:103AB800636A01336362238D013B2385638D9BB267
:103AC800013B9BB2638546E02363202284F83D20B6
:103AD80084F83E30226C42F02002226462B684F8F8
:103AE8003C300127F5E600BF020010000000FFFF90
:103AF800040001006000002089B5F8142A46314608
:103B08002046FFF7B9FD002879D123681A69636A4E
:103B18001A70636A01336362228D013A92B2228578
:103B2800638D9BB2013B9BB263852368596911F091
:103B3800040F10D0032A48D023681A69636A1A70E0
:103B4800636A01336362238D013B2385638D9BB2D6
:103B5800013B9BB26385238D002B3BD0032BCDD833
:103B6800012B3FF43FAF022B7FF454AF009533464F
:103B7800002224492046FFF7E6FB00283BD172B615
:103B88002268136843F40073136023681A69636A30
:103B98001A70636A01336362238D013B2385638D49
:103BA8009BB2013B9BB2638562B623681A69636A5C
:103BB8001A70636A01336362238D013B2385638D29
:103BC8009BB2013B9BB26385C5E71A6822F4806209
:103BD8001A60B1E7202384F83D30002384F83E3092
:103BE80084F83C3075E6022773E6022771E6012760
:103BF8006FE601276DE601276BE6012769E60127D5
:103C080067E600BF0400010010B504460E4B1A78A1
:103C18004FF47A73B3FBF2F30C4A1068B0FBF3F07D
:103C280000F0D6FC68B90F2C01D901200AE0002267
:103C380021464FF0FF3000F0BBFC054B1C60002014
:103C480000E0012010BD00BF5800002060000020E7
:103C58005C00002008B5074A136843F0100313609E
:103C6800032000F093FC0020FFF7CEFFFFF730FBA6
:103C7800002008BD00200240034A1168034B1B784E
:103C88000B441360704700BFD80200205800002082
:103C9800014B1868704700BFD802002038B50446A9
:103CA800FFF7F6FF0546B4F1FF3F02D0044B1B783F
:103CB8001C44FFF7EDFF401BA042FAD338BD00BFFC
:103CC8005800002082B0084B1B68084AA2FB032357
:103CD8005B0A00FB03F3019300BF019B5A1E01928C
:103CE800002BF9D102B0704760000020D34D62105C
:103CF800002800F0F18170B582B00446036813F023
:103D0800010F2CD0994B5B6803F00C03042B1DD0DA
:103D1800964B5B6803F00C03082B12D06368B3F56D
:103D2800803F41D0002B55D103F1804303F5043384
:103D38001A6822F480321A601A6822F480221A6003
:103D480037E08A4B5B6813F4803FE7D0874B1B68EA
:103D580013F4003F03D06368002B00F0BF81236891
:103D680013F0020F75D0814B5B6813F00C0F5FD016
:103D78007E4B5B6803F00C03082B54D02369002B9F
:103D880000F08A807A4B01221A60FFF781FF05460E
:103D9800764B1B6813F0020F75D1FFF779FF401BB4
:103DA8000228F5D903209EE1704A136843F4803352
:103DB8001360636843B3FFF76BFF05466B4B1B68E3
:103DC80013F4003FCBD1FFF763FF401B6428F5D9FC
:103DD800032088E1B3F5A02F09D0644B1A6822F4B8
:103DE80080321A601A6822F480221A60E1E703F12F
:103DF8008043A3F53C331A6842F480221A601A689B
:103E080042F480321A60D4E7FFF742FF0546574B69
:103E18001B6813F4003FA2D0FFF73AFF401B642849
:103E2800F5D903205FE1514B5B6813F4803FA5D1BE
:103E38004E4B1B6813F0020F03D02369012B40F08F
:103E48004F814A4A136823F0F803616943EAC103C2
:103E58001360236813F0080F33D0A369002B5CD0DC
:103E6800434B0122C3F88024FFF712FF05463F4B5E
:103E78005B6A13F0020F21D1FFF70AFF401B0228EB
:103E8800F5D903202FE1394A136823F0F803616953
:103E980043EAC1031360DCE7354B00221A60FFF7E1
:103EA800F7FE0546314B1B6813F0020FD1D0FFF720
:103EB800EFFE401B0228F5D9032014E10120FFF78B
:103EC80001FF236813F0040F00F09680274BDB698D
:103ED80013F0805F34D1254BDA6942F08052DA6101
:103EE800DB6903F080530193019B0125214B1B687B
:103EF80013F4807F26D0E368012B3DD0002B53D1EB
:103F080003F1804303F504331A6A22F001021A62AE
:103F18001A6A22F004021A6233E0154B0022C3F831
:103F28008024FFF7B5FE0546104B5B6A13F0020FBD
:103F3800C7D0FFF7ADFE401B0228F5D90320D2E019
:103F48000025D3E70B4A136843F480731360FFF727
:103F58009FFE0646074B1B6813F4807FCBD1FFF703
:103F680097FE801B6428F5D90320BCE000100240AE
:103F780000004242007000405F4A136A43F00103A8
:103F88001362E36833B3FFF783FE06465A4B1B6A96
:103F980013F0020F2FD1FFF77BFE801B41F288330D
:103FA8009842F3D903209EE0052B09D0524B1A6A98
:103FB80022F001021A621A6A22F004021A62E0E789
:103FC8004D4B1A6A42F004021A621A6A42F0010260
:103FD8001A62D6E7FFF75CFE0646474B1B6A13F0EA
:103FE800020F08D0FFF754FE801B41F28833984235
:103FF800F3D9032077E0E5B9E369002B72D03E4A94
:10400800526802F00C02082A56D0022B17D03B4BFC
:1040180000221A66FFF73CFE0446374B1B6813F074
:10402800007F47D0FFF734FE001B0228F5D9032094
:1040380059E0314AD36923F08053D361DCE72F4B31
:1040480000221A66FFF724FE05462B4B1B6813F067
:10405800007F06D0FFF71CFE401B0228F5D903207D
:1040680041E0236AB3F5803F1AD023494B6823F413
:104078007413226A606A024313434B601F4B012288
:104088001A66FFF705FE04461B4B1B6813F0007FFA
:104098000ED1FFF7FDFD001B0228F5D9032022E011
:1040A800154A536823F40033A1680B435360DCE7D7
:1040B800002018E0002016E0012B16D00E4B5B689C
:1040C80003F48031226A914211D103F47013626AB9
:1040D80093420ED1002006E001207047012002E043
:1040E800012000E0002002B070BD0120FBE70120A4
:1040F800F9E70120F7E700BF001002400000424244
:104108000F4B5B6803F00C02082A01D00D4870477A
:10411800C3F383420C49885C13F4803F0BD0084BEF
:104128005B68C3F34043094AD35C064A02FB00F0CC
:10413800B0FBF3F07047064B03FB00F0704700BF7D
:104148000010024000127A00E44A0008E04A000821
:1041580000093D00002800F0A08070B50D46044617
:10416800524B1B6803F007038B420BD24F4A13686C
:1041780023F007030B431360136803F007038B4214
:1041880040F08D80236813F0020F17D013F0040F4E
:1041980004D0474A536843F4E0635360236813F03C
:1041A800080F04D0424A536843F460535360404AAE
:1041B800536823F0F003A1680B435360236813F09E
:1041C800010F31D06368012B20D0022B25D0384A4B
:1041D800126812F0020F64D035494A6822F00302CF
:1041E80013434B60FFF754FD0646314B5B6803F001
:1041F8000C036268B3EB820F16D0FFF749FD801BF2
:1042080041F288339842F0D9032045E0284A1268E1
:1042180012F4003FE0D101203EE0254A126812F076
:10422800007FD9D1012037E0204B1B6803F007033A
:10423800AB420AD91D4A136823F007032B431360C6
:10424800136803F00703AB422DD1236813F0040F62
:1042580006D0174A536823F4E063E1680B435360C0
:10426800236813F0080F07D0114A536823F46053EA
:10427800216943EAC1035360FFF742FF0C4B5B68B7
:10428800C3F303130B4AD35CD8400B4B18600B4B9A
:104298001868FFF7B9FC002070BD012070470120A5
:1042A800FAE70120F8E70120F6E700BF0020024006
:1042B80000100240FC4A0008600000205C0000205A
:1042C800014B1868704700BF6000002008B5FFF771
:1042D800F7FF044B5B68C3F30223034AD35CD8405F
:1042E80008BD00BF00100240F44A000870B582B053
:1042F8000024A446ABE0854DAB4214D00CD8A5F5FC
:104308008015AB420FD005F57025AB420BD0A5F553
:104318008015AB4210D106E07D4DAB4203D005F5C8
:104328008035AB4208D18B68002B5AD0012B53D073
:104338004261082400E0CC68BEF1FF0F53D806465E
:104348004FEA8C0233680F25954023EA050304FAE7
:1043580002F2134333604B6813F0805F75D06D4BE6
:104368009A6942F001029A619B6903F00103019383
:10437800019B4FEA9C02951C674B53F825600CF093
:104388000305AD000F23AB4026EA0306634B9842B2
:1043980030D003F58063984200F0968003F580637F
:1043A800984200F0938003F58063984200F0908073
:1043B80003F58063984200F08D8003F5806398428E
:1043C80016D0062317E0CC680434B5E7CC68083467
:1043D800B2E7CC680C34AFE702610824ACE70024EC
:1043E800AAE70424A8E7061DACF108029200A9E791
:1043F800052300E00023AB4033430232464D45F825
:1044080022304B6813F4801F66D0454A936843EA0C
:104418000E0393604B6813F4001F63D0404AD368BF
:1044280043EA0E03D3604B6813F4003F60D03C4A64
:10443800536843EA0E0353604B6813F4803F5DD022
:10444800374A136843EA0E0313600CF1010C0B683A
:1044580033FA0CF258D0012202FA0CF203EA020EE7
:1044680032EA0303F1D14B68122B3FF644AF122B0B
:104478003FF662AF01A555F823F000BF2F430008AF
:104488003F430008D5430008E743000841430008BC
:1044980041430008414300084143000841430008E4
:1044A80041430008414300084143000841430008D4
:1044B80041430008414300084143000841430008C4
:1044C800CF430008DB430008012394E7022392E767
:1044D800032390E704238EE7114A936823EA0E0327
:1044E800936097E70E4AD36823EA0E03D3609AE7EE
:1044F8000B4A536823EA0E0353609DE7084A136882
:1045080023EA0E031360A0E702B070BD000022107A
:104518000000311000100240000001400008014076
:1045280000040140002808DB0901C9B200F160401D
:1045380000F5614080F80013704700F00F00090192
:10454800C9B2014B1954704714ED00E000B500F0F2
:104558000700C0F1070CBCF1040F28BF4FF0040C92
:10456800031D062B0FD9C31E4FF0FF3E0EFA0CF0A9
:1045780021EA000199400EFA03FE22EA0E0241EAFE
:1045880002005DF804FB0023EEE70000074AD36849
:1045980023F4E0631B041B0C000200F4E0600343F7
:1045A80043F0BF6343F40033D360704700ED00E08D
:1045B80010B50446054BD868C0F30220FFF7C6FFC4
:1045C80001462046FFF7AEFF10BD00BF00ED00E03A
:1045D8000138B0F1807F0BD24FF0E0235861054AD3
:1045E800F02182F823100020986107221A61704791
:1045F8000120704700ED00E070470000094AD2F83A
:10460800FC3043F08073C2F8FC30074B00225A603C
:104618001A6842F001021A60044B03FB00F0044BD5
:104628001860704700ED00E0001000E040420F0005
:10463800DC02002030B583B004460A4B5B68019366
:1046480001982368C01AFDF719FE0546064B18683D
:10465800FDF714FE01462846FDF71CFF019B236069
:1046680003B030BD001000E0DC020020FFF7C4FFFB
:104678000B480C490C4A002302E0D458C4500433B8
:10468800C4188C42F9D3094A094C002301E013608D
:104698000432A242FBD3FBF7F9FDFEF7E5FC7047B5
:1046A8000000002064000020184B0008640000206F
:1046B800E0020020FEE70000F8B500BFF8BC08BC27
:1046C8009E467047F8B500BFF8BC08BC9E467047C8
:1046D800DB0F49BFE4CB1640E4CB16C000000080D6
:1046E800DB0F4940DB0F49C0000FC93F000F4940AD
:1046F80000CB9640000FC9400053FB4000CB164149
:1047080000ED2F41000F49410031624100537B41C8
:10471800003A8A4100CB9641005CA34100EDAF41CD
:10472800007EBC41000FC94100A0D5410031E241E3
:1047380000C2EE410053FB4100F20342003A0A4234
:104748000083104200CB164200141D42005C234235
:1047580000A5294200ED2F4200363642007E3C4239
:1047680000C74242000F4942A2000000F9000000C1
:10477800830000006E0000004E00000044000000AE
:104788001500000029000000FC00000027000000C0
:1047980057000000D1000000F500000034000000C0
:1047A800DD000000C0000000DB0000006200000027
:1047B80095000000990000003C0000004300000044
:1047C8009000000041000000FE00000051000000C1
:1047D80063000000AB000000DE000000BB0000002A
:1047E800C500000061000000B700000024000000C0
:1047F8006E0000003A000000420000004D0000007A
:10480800D2000000E000000006000000490000009F
:104818002E000000EA00000009000000D10000009E
:10482800920000001C000000FE0000001D000000B7
:10483800EB0000001C000000B1000000290000008F
:10484800A70000003E000000E80000008200000011
:1048580035000000F50000002E000000BB0000003D
:104868004400000084000000E90000009C000000F3
:104878007000000026000000B40000005F00000087
:104888007E00000041000000390000009100000097
:10489800D60000003900000083000000530000002B
:1048A80039000000F40000009C00000084000000B3
:1048B8005F0000008B000000BD000000F900000050
:1048C800280000003B0000001F000000F800000066
:1048D80097000000FF000000DE0000000500000057
:1048E800980000000F000000EF0000002F000000FB
:1048F800110000008B0000005A0000000A000000B0
:104908006D0000001F0000006D0000003600000070
:104918007E000000CF00000027000000CB00000050
:1049280009000000B70000004F000000460000002A
:104938003F000000660000009E0000005F000000CD
:10494800EA0000002D0000007500000027000000AC
:10495800BA000000C7000000EB000000E5000000FE
:10496800F10000007B0000003D000000070000008F
:1049780039000000F70000008A0000005200000023
:1049880092000000EA0000006B000000FB0000003D
:104998005F000000B10000001F0000008D00000053
:1049A8005D00000008000000560000000300000041
:1049B8003000000046000000FC0000007B00000002
:1049C8006B000000AB000000F0000000CF0000000A
:1049D800BC000000200000009A000000F400000065
:1049E800360000001D000000A9000000E3000000E0
:1049F80091000000610000005E000000E600000079
:104A08001B0000000800000065000000990000007D
:104A1800850000005F00000014000000A0000000F6
:104A280068000000400000008D000000FF0000004A
:104A3800D8000000800000004D0000007300000056
:104A480027000000310000000600000006000000FA
:104A58001500000056000000CA00000073000000A6
:104A6800A8000000C900000060000000E20000008B
:104A78007B000000C00000008C0000006B000000FC
:104A88003863ED3EDA0F493F5E987B3FDA0FC93F46
:104A98006937AC3168212233B40F14336821A2334B
:104AA8000400000007000000090000000000C93FE2
:104AB8000000F0390000DA370000A2330000842E2D
:104AC8000000502B0000C2270000D0220000C41FA5
:104AD8000000C61B00004417010200000203040581
:104AE800060708090A0B0C0D0E0F10100000000035
:104AF800010203040000000000000000010203049A
:084B0800060708090000000087
:044B10005D27000815
:044B14003927000835
:104B1800040000200000000064000020CC000020F9
:104B28003401002000000000000000000000000028
:104B3800000000000000000000000000000000006D
:104B4800000000000000000000000000000000005D
:104B5800000000000000000000000000000000004D
:104B68000000803F6042A20D01000000100000001C
:044B780000127A00AD
:040000050800467534
:00000001FF
