:020000040800F2
:1000000000C00020613E0008AD2A0008AF2A0008A9
:10001000B12A0008B32A0008B52A00080000000031
:10002000000000000000000000000000B72A0008E7
:10003000B92A000800000000BB2A0008BD2A0008F9
:10004000A93E0008A93E0008A93E0008A93E0008F4
:10005000A93E0008A93E0008A93E0008A93E0008E4
:10006000A93E0008A93E0008A93E0008A93E0008D4
:10007000A93E0008A93E0008A93E0008A93E0008C4
:10008000A93E0008A93E0008A93E0008A93E0008B4
:10009000A93E0008A93E0008A93E0008A93E0008A4
:1000A000A93E0008A93E0008A93E0008A93E000894
:1000B000A93E0008A93E0008A93E0008A93E000884
:1000C000A93E0008A93E0008A93E0008A93E000874
:1000D000A93E0008A93E0008A93E0008A93E000864
:1000E000A93E0008A93E0008A93E0008A93E000854
:1000F000A93E0008A93E0008A93E0008A93E000844
:10010000A93E0008A93E0008A93E0008A93E000833
:10011000A93E0008A93E0008A93E0008A93E000823
:10012000A93E0008A93E0008A93E0008A93E000813
:1001300000000000000000000000000000000000BF
:1001400000000000000000000000000000000000AF
:10015000000000000000000000000000000000009F
:10016000000000000000000000000000000000008F
:10017000000000000000000000000000000000007F
:10018000000000000000000000000000000000006F
:10019000000000000000000000000000000000005F
:1001A000000000000000000000000000000000004F
:1001B000000000000000000000000000000000003F
:1001C000000000000000000000000000000000002F
:1001D000000000000000000000000000000000001F
:0401E0005FF8E0F1F3
:1001E80070B5860747D0541E002A3ED00346CAB2CF
:1001F80001E0013C39D303F8012B9D07F9D1032C09
:100208002CD9CDB205EB05250F2C1A4605EB054573
:1002180034D9A4F1100C2CF00F0603F1100EB644DB
:100228004FEA1C1C156055609560D5601032724508
:10023800F8D10CF1010214F00C0F03EB021204F0D8
:100248000F0C13D0ACF1040323F00303043313445D
:1002580042F8045B9A42FBD10CF003042CB1C9B2FA
:100268001C4403F8011B9C42FBD170BD6446134635
:10027800002CF4D1F9E703461446C0E7A446E1E7A9
:10028800014B1868704700BF0000002070B50F4B85
:100298000F4DAB42A3EB050607D00024B61055F866
:1002A800043B01349847A642F9D803F0FBFD094DF9
:1002B800094B5E1BAB424FEAA60606D0002455F850
:1002C800043B01349847A642F9D870BDA03F000806
:1002D800A03F0008A03F0008A43F0008F8B5044666
:1002E8000D4600F0D1F9224606460F462B46204619
:1002F800294601F01DFC40B92046294600F040F887
:100308000022084B01F00AFC10B930463946F8BD06
:10031800FFF7B6FF2122034603481A60BDE8F840FC
:1003280000F052B80000F03F9C3F000800F0D4BB3A
:10033800F8B504460D4600F04DF8224606460F462D
:100348002B462046294601F0F3FB30B920462946C2
:100358000022002301F0C4FB10B930463946F8BD2D
:10036800FFF78EFF00220023212101601046194665
:1003780001F06EFA06460F4630463946F8BD00BF12
:1003880021F000431946704700F0ECBD38B504462B
:1003980000F00AF921460546204601F003FF20B97E
:1003A8002046002101F0D6FE08B9284638BDFFF7DF
:1003B80067FF2122034600211A60084601F0E0FD8C
:1003C8000546284638BD00BF00200149704700BFD8
:1003D8000000F87F2DE9F047714F04468F430D4622
:1003E80000F0B08000290B460646024655DD081588
:1003F80000F09980C3F31303C107A0F2FF3743F459
:10040800801303D4D10F01EB4303520000261624B6
:100418004FF40011B4465B0003EBD2737F10520017
:100428000CEB0100984203DC1B1A01EB000C0E4494
:100438005B00013C03EBD2734FEA51014FEA4202E1
:10044800EED120254FF00040A0460AE039D05900EF
:1004580001EBD271013D0B464FEA42024FEA5000D0
:100468003BD09C4508EB000EF0DABEF1000F0EEB16
:1004780000080CDBE146A3EB0C01CC46964588BF8F
:1004880001F1FF314900A2EB0E020444E0E7B8F1A4
:10049800000FEFDB0CF10109EDE721F000470743FE
:1004A8003BD0002971D1D10A153B52050029FAD059
:1004B800CD02184616460B4635D520244FF0FF319D
:1004C8003CE0964502D94FEA4C01C1E7BEF1000F66
:1004D8000EEB000823DB0021D5E7114310D0DFF82D
:1004E800C4A0DAE90001DAE9022300F0CFFEDAE974
:1004F800008902460B464046494601F0FBFA58BBC4
:100508006508F20748BF45F000452846731003F117
:100518007F5303F5001303EB0751BDE8F087B8F1EB
:10052800000FB7DAD7E700225B00DC02114602F1C0
:100538000102F9D5C2F1200406FA02F2E640401A97
:10054800334357E702460B4601F058F822462B463C
:1005580000F09EFEBDE8F087B4F1FF3FDAE9000144
:10056800DAE9022318D0DAE9008900F091FE0246A0
:100578000B464046494601F0B3FA78B1A11C04F194
:10058800020508BF01366D08BBE700F07FFE024692
:100598000B4601F05DF9C0E70136B2E70134AFE779
:1005A8000000F07F5000002020F00042B2F1FF4F21
:1005B800F8B5044651D2002A4ED00028034653DB32
:1005C80014F0FF4F4FEAE05009D114F4000256D15D
:1005D8005B001C02114602F10102F9D5401A002401
:1005E8004FF0190E4FF0807C2146C3F3160242F4F7
:1005F8000002C307A0F17F0558BF52006D105200DA
:1006080001EB0C039342CFBF134603EB0C01644488
:10061800D31ABEF1010E4FEA43024FEA5C0CEFD148
:10062800ABB1184E3068716801F0ECFA37680146D2
:10063800384601F099FD50B13068716801F0E4FA6C
:1006480036680146304601F085FDA0B102346010DD
:1006580000F17C5000EBC550F8BD014601F0DCFB11
:10066800214601F0D1FAF8BD014601F0CBFA014666
:1006780001F086FCF8BD013424F00104E7E74FF0EF
:10068800FF31ABE7600000202DE9F04FBE4B21F0B1
:100698000048984504460D4685B028D908F14048D9
:1006A80008F5801858EA00080AD002460B4600F000
:1006B800EDFD02460B4601F0CBF805B0BDE8F08F22
:1006C80095A3D3E9002300F099FF95A3D3E900236C
:1006D80006460F462046294600F090FF02460B4684
:1006E8003046394600F0D4FD05B0BDE8F08FA74B81
:1006F8008A4698450FD8B8F1795F80F04F818AA370
:10070800D3E9002300F0C4FD0022A14B01F006FA52
:10071800002840F0FE8020462946FFF731FE0246B9
:100728000B4600209A4900F0B1FD0022994B00F0D9
:1007380065FF7FA3D3E9002304460D4600F05EFF62
:100748007DA3D3E9002300F0A3FD22462B4600F049
:1007580055FF7BA3D3E9002300F098FD22462B46E2
:1007680000F04CFF78A3D3E9002300F091FD224666
:100778002B4600F043FF76A3D3E9002300F086FD63
:1007880022462B4600F03AFF73A3D3E9002300F07A
:100798007FFD22462B4600F031FF71A3D3E90023E9
:1007A800CDE900012046294600F028FF6EA3D3E9D1
:1007B800002300F06BFD22462B4600F01FFF6CA3C0
:1007C800D3E9002300F064FD22462B4600F016FF13
:1007D80069A3D3E9002300F059FD22462B4600F017
:1007E8000DFF00226A4B00F053FDCDE902012046BF
:1007F8002946FFF7EFFDDFF8A0C10646E0450F46A2
:1008080068D802460B4600F043FDDDE902238C461A
:100818008346DDE90001CDE900BC01F019F8024684
:100828000B46DDE9000100F0E9FE4FF00008CDE9D4
:10083800000142463B464046394600F0DFFE02468C
:100848000B462046294600F021FD424604460D4647
:100858003B463046394600F01BFD02460B46204613
:10086800294600F0F5FF02460B4600F011FD02464E
:100878000B462BA1D1E9000100F008FD02460B460A
:10088800DDE9000100F002FD424604460D463B4604
:100898004046394600F0FCFC02460B4638A1D1E937
:1008A800000100F0F3FC02460B462046294600F002
:1008B800EDFC02460B4632A1D1E9000100F0E6FC4E
:1008C800BAF1000F3FF7F9AE01F10043194605B040
:1008D800BDE8F08FDDE90223DDE9000100F0B8FF93
:1008E80032463B4600F08AFE32463B4600F0D0FCDA
:1008F80002460B4600F0CCFC09A3D3E9002300F024
:10090800C5FC02460B4604A1D1E9000100F0BEFC7B
:10091800D6E720462946D0E6182D4454FB21F93F56
:10092800075C143326A6913C9C7500883CE4377E0E
:1009380009F7FD0DE13D023F88B20175E0EF493F3F
:100948003B8F68B52882A43F5544880E55C1C93FDE
:100958007D6FEB0312D6D43F555555555555C53FB8
:1009680082922EB1C5B8B33F59018D1B6C06E63F84
:10097800C88A599CE52A00404B2D8A1C273A034017
:10098800182D4454FB21E93FFFFFEF3FFFFFDF3FF6
:100998000000F03F0000E03F3233EF3F02460B46D5
:1009A80000F02CFE36A3D3E9002306460F4600F0DC
:1009B80025FE35A3D3E9002300F06AFC32463B4606
:1009C80000F01CFE32A3D3E9002300F05FFC32469E
:1009D8003B4600F013FE30A3D3E9002300F058FC97
:1009E80032463B4600F00AFE2DA3D3E9002300F06F
:1009F8004DFC32463B4600F001FE2BA3D3E9002311
:100A080000F046FC32463B4600F0F8FD28A3D3E947
:100A18000023804689463046394600F0EFFD26A37C
:100A2800D3E9002300F032FC32463B4600F0E6FDF5
:100A380023A3D3E9002300F02BFC32463B4600F009
:100A4800DDFD21A3D3E9002300F020FC32463B461C
:100A580000F0D4FD00221E4B00F01AFC02460B46A3
:100A68004046494600F0F4FE22462B4600F0C6FDFB
:100A780022462B4600F00CFC05B0BDE8F08F00BF05
:100A880009F7FD0DE13D023F88B20175E0EF493FEE
:100A98003B8F68B52882A43F5544880E55C1C93F8D
:100AA8007D6FEB0312D6D43F555555555555C53F67
:100AB80082922EB1C5B8B33F59018D1B6C06E63F33
:100AC800C88A599CE52A00404B2D8A1C273A0340C6
:100AD8000000F03F000000002DE9F84F994653420E
:100AE8005F4F134329F0004E4EEAD373BB420446CE
:100AF8000D4690463DD84642064321F0004A4AEA50
:100B0800D676BE4203468B4633D809F1404606F5F1
:100B1800801616433DD04FEAA97606F002065AEA37
:100B2800030346EAD1762CD05EEA020235D0BE45F0
:100B380046D0BA4531D0AAEB0E0ABAF1747F4FEA13
:100B48002A5339DAB9F1000F46DA3C3344DA002087
:100B58000021012E58D0022E49D086B134A3D3E902
:100B6800002300F093FB34A3D3E9002300F08EFBAD
:100B780005E022462B464046494600F089FBBDE881
:100B8800F88F022E10D0032EF9D12DA1D1E9000142
:100B9800F5E7BDE8F84F00F067B8BBF1000F07DBD9
:100BA80029A1D1E90001EAE723A1D1E90001E6E79B
:100BB80027A1D1E90001E2E723A1D1E90001C8E7B3
:100BC800F24506F1FF3623D0022E29D8254B03EB38
:100BD800C603D3E90601D2E742464B4620462946DA
:100BE80000F036FEFFF7CCFB00F03EF8B1E710A3AB
:100BF800D3E9002300F04AFB02460B460EA1D1E9D7
:100C0800000100F043FBBAE701F100431946B6E7DB
:100C1800022E08D8134B03EBC603D3E90001AEE755
:100C280000200021ABE70CA1D1E90001A7E700BF34
:100C3800075C143326A6A13C182D4454FB21094017
:100C4800182D4454FB2109C0182D4454FB21F93FA9
:100C5800182D4454FB21F9BF182D4454FB21E93FBA
:100C68000000F07FC83E00082DE9F84FB44B21F092
:100C780000469E4204460D468A4616D9B14B9E420E
:100C88000BD808D0BAF1000F40F3BF8090A1D1E98A
:100C98000001BDE8F88F0028F4D022462B462046F4
:100CA800294600F0F5FABDE8F88FA74B9E4200F2FE
:100CB800B180A3F1DE739E4240F298804FF0FF3B73
:100CC80022462B462046294600F098FC02460B4651
:100CD8008046894600F092FC7FA3D3E900230646AC
:100CE8000F4600F08BFC7EA3D3E9002300F0D0FA76
:100CF80032463B4600F082FC7BA3D3E9002300F098
:100D0800C7FA32463B4600F079FC79A3D3E90023C1
:100D180000F0BEFA32463B4600F070FC76A3D3E9F9
:100D2800002300F0B5FA32463B4600F067FC74A396
:100D3800D3E9002300F0ACFA42464B4600F05EFCD3
:100D480071A3D3E90023804689463046394600F02E
:100D580055FC6FA3D3E9002300F098FA32463B46CE
:100D680000F04CFC6CA3D3E9002300F08FFA324664
:100D78003B4600F043FC6AA3D3E9002300F086FA5F
:100D880032463B4600F03AFC67A3D3E9002300F063
:100D98007DFA32463B4600F031FC02460B4640469F
:100DA800494600F075FA22462B4600F027FCBBF1B5
:100DB800FF3F02460B464CD0644E06EBCB06D6E905
:100DC800082300F063FA22462B4600F05FFA024639
:100DD8000B46D6E9000100F059FABAF1000FBFF648
:100DE80062AF01F100431946BDE8F88F50A3D3E97B
:100DF800002300F04DFA0022554B00F08FFE00282A
:100E08003FF45CAF204629464DE74BA1D1E90001EC
:100E1800BDE8F88FFFF7B4FA4E4B04469E420D46E4
:100E28001DD8A3F550239E4244D802460B4600F035
:100E38002FFA0022464B00F029FA02460B462046BC
:100E4800294614461D464FF0000B00224FF0804300
:100E58001AE02046294600F019FABDE8F88F3E4B03
:100E68009E421CD200223D4B00F010FA02460B466F
:100E78002046294614461D460022384B4FF0020BE7
:100E880000F0BCFB0022324B00F002FA02460B468F
:100E98002046294600F0DCFC04460D4610E70246D1
:100EA8000B4600202E4900F0D3FC4FF0030B0446FC
:100EB8000D4605E70022264B00F0E8F902460B46EE
:100EC800204629464FF0010B14461D46DAE700BFBD
:100ED800182D4454FB21F93F11DA22E33AAD903F33
:100EE800EB0D76244B7BA93F513DD0A0660DB13F59
:100EF8006E204CC5CD45B73FFF8300922449C23FC1
:100F08000D5555555555D53F2F6C6A2C44B4A2BF85
:100F18009AFDDE522DDEAD3F6D9A74AFF2B0B33F4D
:100F2800711623FEC671BC3FC4EB98999999C93FC5
:100F38009C7500883CE4377E182D4454FB21F9BF8A
:100F4800FFFF0F440000F07FFFFFDB3FF83E000883
:100F58000000F03FFFFFF23F008003400000F83F31
:100F68000000F0BF70B521F00045B5F1FF4F0A460B
:100F780003462CD820F00046B6F1FF4F844626D809
:100F8800B1F17E5F35D08C1704F0020444EAD074C6
:100F980016B33DB3B5F1FF4F33D0B6F1FF4F21D0B3
:100FA800761BB6F1F45F4FEAE65028DA002934DA06
:100FB8003C3032DA0020012C40D0022C36D02CB143
:100FC800254900F021FE254900F01CFE70BD194698
:100FD800104600F019FE70BD022C08D0032CF5D184
:100FE8001F4870BDBCF1000F07DB1E4870BD1B48D1
:100FF80070BDBDE8704000F03DB81B4870BD194891
:10100800D9E7B6F1FF4F04F1FF341AD0022C1ED8ED
:10101800164B03EB8403D86870BD1146184600F0E0
:10102800AFFF00F02BF900F025F8C4E70A4900F0FB
:10103800EBFD0146094800F0E5FD70BD00F10040F8
:1010480070BD022C05D8094B53F8240070BD002050
:1010580070BD074870BD00BF2EBDBB33DB0F4940D4
:10106800DB0F49C0DB0FC93FDB0FC9BF383F0008A2
:10107800DB0F493F2DE9F04120F00045B5F1A14FC4
:101088000446074608D3B5F1FF4F73D8002840F34C
:1010980081806748BDE8F081664B9D427DD8B5F1F7
:1010A800445F6CD34FF0FF382146204600F0B4FE71
:1010B8000146064600F0B0FE05465F4900F0ACFE6A
:1010C8005E4900F0A1FD294600F0A6FE5C4900F04B
:1010D8009BFD294600F0A0FE5A4900F095FD2946DF
:1010E80000F09AFE584900F08FFD294600F094FE62
:1010F800564900F089FD314600F08EFE54490646F7
:10110800284600F089FE534900F07CFD294600F08E
:1011180083FE514900F076FD294600F07DFE4F49D7
:1011280000F070FD294600F077FE4D4900F06AFD99
:10113800294600F071FE0146304600F065FD214663
:1011480000F06AFEB8F1FF3F01463CD0454D05EB83
:101158008803196900F056FD214600F053FD014649
:1011680055F8280000F04EFD002F93DA00F10040FA
:10117800BDE8F081014600F047FDBDE8F0813A493D
:1011880000F042FD4FF07E5101F002F8002889D0AE
:1011980020467FE73548BDE8F08100F06FF8344B12
:1011A80004469D4214D8A3F5D0039D4232D94FF08E
:1011B8007E5100F027FD4FF0010803464FF07E51A5
:1011C80020461C4616E0204600F01CFDBDE8F081D4
:1011D800284B9D4216D84FF07F5100F013FD03466F
:1011E8004FF07F5120464FF002081C4600F014FED5
:1011F8004FF07E5100F008FD0146204600F0C0FE89
:10120800044651E701461C4800F0BAFE4FF00308B7
:10121800044649E7014600F0F7FC4FF07E5100F024
:10122800F1FC4FF0000803464FF080412046C8E724
:10123800DB0FC93FFFFFDF3ED769853C59DA4B3DDD
:10124800356B883D6E2EBA3D2549123EABAAAA3EA3
:1012580021A215BD6BF16E3D95879D3D388EE33D0E
:10126800CDCC4C3E503F0008CAF24971DB0FC9BFD4
:10127800FFFF973FFFFF1B40000080BF20F00040AA
:10128800704700BF81F0004102E000BF83F00043D7
:1012980030B54FEA41044FEA430594EA050F08BF09
:1012A80090EA020F1FBF54EA000C55EA020C7FEACD
:1012B800645C7FEA655C00F0E2804FEA5454D4EB4A
:1012C8005555B8BF6D420CDD2C4480EA020281EA14
:1012D800030382EA000083EA010180EA020281EA4C
:1012E8000303362D88BF30BD11F0004F4FEA01319E
:1012F8004FF4801C4CEA113102D0404261EB4101AD
:1013080013F0004F4FEA03334CEA133302D0524232
:1013180063EB430394EA050F00F0A780A4F10104EE
:10132800D5F1200E0DDB02FA0EFC22FA05F2801828
:1013380041F1000103FA0EF2801843FA05F359410E
:101348000EE0A5F120050EF1200E012A03FA0EFC8D
:1013580028BF4CF0020C43FA05F3C01851EBE371B7
:1013680001F0004507D54FF0000EDCF1000C7EEBD4
:1013780000006EEB0101B1F5801F1BD3B1F5001F12
:101388000CD349085FEA30004FEA3C0C04F1010431
:101398004FEA445212F5800F80F09A80BCF1004F5A
:1013A80008BF5FEA500C50F1000041EB045141EADC
:1013B800050130BD5FEA4C0C404141EB0101013CA5
:1013C80028BFB1F5801FE9D291F0000F04BF014694
:1013D8000020B1FA81F308BF2033A3F10B03B3F166
:1013E80020020CDA0C3208DD02F1140CC2F10C02F6
:1013F80001FA0CF021FA02F10CE002F11402D8BF54
:10140800C2F1200C01FA02F120FA0CFCDCBF41EA1F
:101418000C019040E41AA2BF01EB0451294330BDEE
:101428006FEA04041F3C1CDA0C340EDC04F11404CB
:10143800C4F1200220FA04F001FA02F340EA0300A2
:1014480021FA04F345EA030130BDC4F10C04C4F1E8
:10145800200220FA02F001FA04F340EA03002946C8
:1014680030BD21FA04F0294630BD94F0000F83F412
:10147800801306BF81F480110134013D4EE77FEAF5
:10148800645C18BF7FEA655C29D094EA050F08BF41
:1014980090EA020F05D054EA000C04BF1946104622
:1014A80030BD91EA030F1EBF0021002030BD5FEA66
:1014B800545C05D14000494128BF41F0004130BD8E
:1014C80014F580043CBF01F5801130BD01F00045E2
:1014D80045F0FE4141F470014FF0000030BD7FEA55
:1014E800645C1ABF194610467FEA655C1CBF0B4650
:1014F800024650EA013406BF52EA033591EA030F67
:1015080041F4002130BD00BF90F0000F04BF00215E
:10151800704730B54FF4806404F132044FF0000591
:101528004FF0000150E700BF90F0000F04BF00210A
:10153800704730B54FF4806404F1320410F0004570
:1015480048BF40424FF000013EE700BF42004FEA6B
:10155800E2014FEA31014FEA02701FBF12F07F43E8
:1015680093F07F4F81F06051704732F07F4208BF9F
:10157800704793F07F4F04BF41F40021704730B5A6
:101588004FF4607401F0004521F000411CE700BFF2
:1015980050EA010208BF704730B54FF000050AE075
:1015A80050EA010208BF704730B511F0004502D576
:1015B800404261EB41014FF4806404F132045FEA78
:1015C800915C3FF4D8AE4FF003025FEADC0C18BF21
:1015D80003325FEADC0C18BF033202EBDC02C2F113
:1015E800200300FA03FC20FA02F001FA03FE40EAA5
:1015F8000E0021FA02F11444BDE600BF70B54FF0A9
:10160800FF0C4CF4E06C1CEA11541DBF1CEA135586
:1016180094EA0C0F95EA0C0F00F0DEF82C4481EAEE
:10162800030621EA4C5123EA4C5350EA013518BF0E
:1016380052EA033541F4801143F4801338D0A0FBFB
:1016480002CE4FF00005E1FB02E506F00042E0FBA8
:1016580003E54FF00006E1FB03569CF0000F18BFAE
:101668004EF0010EA4F1FF04B6F5007F64F5407456
:1016780004D25FEA4E0E6D4146EB060642EAC621E9
:1016880041EA55514FEAC52040EA5E504FEACE2E56
:10169800B4F1FD0C88BFBCF5E06F1ED8BEF1004F59
:1016A80008BF5FEA500E50F1000041EB045170BDD5
:1016B80006F0004646EA010140EA020081EA030119
:1016C800B4EB5C04C2BFD4EB0C0541EA045170BD15
:1016D80041F480114FF0000E013C00F3AB8014F18F
:1016E800360FDEBF002001F0004170BDC4F10004D8
:1016F800203C35DA0C341BDC04F11404C4F1200559
:1017080000FA05F320FA04F001FA05F240EA0200B3
:1017180001F0004221F0004110EBD37021FA04F6E9
:1017280042EB06015EEA430E08BF20EAD37070BDA3
:10173800C4F10C04C4F1200500FA04F320FA05F002
:1017480001FA04F240EA020001F0004110EBD37004
:1017580041F100015EEA430E08BF20EAD37070BD74
:10176800C4F1200500FA05F24EEA020E20FA04F34D
:1017780001FA05F243EA020321FA04F001F00041FC
:1017880021FA04F220EA020000EBD3705EEA430E6D
:1017980008BF20EAD37070BD94F0000F0FD101F09C
:1017A8000046400041EB010111F4801F08BF013CD5
:1017B800F7D041EA060195F0000F18BF704703F013
:1017C8000046520043EB030313F4801F08BF013D9A
:1017D800F7D043EA0603704794EA0C0F0CEA135556
:1017E80018BF95EA0C0F0CD050EA410618BF52EA10
:1017F8004306D1D181EA030101F000414FF0000016
:1018080070BD50EA410606BF1046194652EA430623
:1018180019D094EA0C0F02D150EA013613D195EA97
:101828000C0F05D152EA03361CBF104619460AD1DF
:1018380081EA030101F0004141F0FE4141F47001E9
:101848004FF0000070BD41F0FE4141F4780170BDD9
:1018580070B54FF0FF0C4CF4E06C1CEA11541DBF3E
:101868001CEA135594EA0C0F95EA0C0F00F0A7F840
:10187800A4EB050481EA030E52EA03354FEA01316D
:1018880000F088804FEA03334FF0805545EA131380
:1018980043EA12634FEA022245EA111545EA106548
:1018A8004FEA00260EF000419D4208BF964244F1DF
:1018B800FD0404F5407402D25B084FEA3202B61AFE
:1018C80065EB03055B084FEA32024FF480104FF4D2
:1018D800002CB6EB020E75EB030E22BFB61A754646
:1018E80040EA0C005B084FEA3202B6EB020E75EBD9
:1018F800030E22BFB61A754640EA5C005B084FEA41
:101908003202B6EB020E75EB030E22BFB61A75460D
:1019180040EA9C005B084FEA3202B6EB020E75EB18
:10192800030E22BFB61A754640EADC0055EA060ED9
:1019380018D04FEA051545EA16754FEA06164FEA1C
:10194800C30343EA52734FEAC2025FEA1C1CC0D1C8
:1019580011F4801F0BD141EA00014FF000004FF055
:10196800004CB6E711F4801F04BF01430020B4F116
:10197800FD0C88BFBCF5E06F3FF6AFAEB5EB030CCE
:1019880004BFB6EB020C5FEA500C50F1000041EBCB
:10199800045170BD0EF0004E4EEA113114EB5C0498
:1019A800C2BFD4EB0C0541EA045170BD41F480116B
:1019B8004FF0000E013C90E645EA060E8DE60CEA73
:1019C800135594EA0C0F08BF95EA0C0F3FF43BAF90
:1019D80094EA0C0F0AD150EA01347FF434AF95EA47
:1019E8000C0F7FF425AF104619462CE795EA0C0F2B
:1019F80006D152EA03353FF4FDAE1046194622E7F8
:101A080050EA410618BF52EA43067FF4C5AE50EAD1
:101A180041047FF40DAF52EA43057FF4EBAE12E7C1
:101A28004FF0FF3C06E000BF4FF0010C02E000BFA2
:101A38004FF0010C4DF804CD4FEA410C7FEA6C5C85
:101A48004FEA430C18BF7FEA6C5C1BD001B050EA28
:101A5800410C0CBF52EA430C91EA030F02BF90EA13
:101A6800020F0020704710F1000F91EA030F58BFD2
:101A7800994208BF90422CBFD8176FEAE37040F034
:101A8800010070474FEA410C7FEA6C5C02D150EAD2
:101A9800013C07D14FEA430C7FEA6C5CD6D152EA8D
:101AA800033CD3D05DF8040B704700BF8446104652
:101AB80062468C461946634600E000BF01B5FFF751
:101AC800B7FF002848BF10F1000F01BD4DF808ED21
:101AD800FFF7F4FF0CBF012000205DF808FB00BFF2
:101AE8004DF808EDFFF7EAFF34BF012000205DF84C
:101AF80008FB00BF4DF808EDFFF7E0FF94BF012099
:101B080000205DF808FB00BF4DF808EDFFF7CEFF99
:101B180094BF012000205DF808FB00BF4DF808EDD8
:101B2800FFF7C4FF34BF012000205DF808FB00BFA9
:101B38004FEA410C7FEA6C5C02D150EA013C0AD1C1
:101B48004FEA430C7FEA6C5C02D152EA033C02D1B3
:101B58004FF0000070474FF0010070474FEA410214
:101B6800B2F1E04324BFB3F5001CDCF1FE5C0DD9F3
:101B780001F0004C4FEAC0024CEA5070B2F1004F3D
:101B880040EB830008BF20F00100704711F0804F40
:101B980021D113F13872BCBF01F00040704741F405
:101BA80080114FEA5252C2F11802C2F1200C10FA09
:101BB8000CF320FA02F018BF40F001004FEAC123ED
:101BC8004FEAD32303FA0CFC40EA0C0023FA02F391
:101BD8004FEA4303CCE77FEA625307D150EA013367
:101BE8001EBF4FF0FE4040F44000704701F0004037
:101BF80040F0FE4040F40000704700BF80F0004015
:101C080002E000BF81F0004142001FBF5FEA4103CC
:101C180092EA030F7FEA226C7FEA236C6AD04FEACC
:101C28001262D2EB1363C1BFD21841404840414011
:101C3800B8BF5B42192B88BF704710F0004F40F4C3
:101C4800000020F07F4018BF404211F0004F41F4DF
:101C5800000121F07F4118BF494292EA030F3FD0AB
:101C6800A2F1010241FA03FC10EB0C00C3F12003BE
:101C780001FA03F100F0004302D5494260EB40004D
:101C8800B0F5000F13D3B0F1807F06D340084FEAB8
:101C9800310102F10102FE2A51D2B1F1004F40EBAD
:101CA800C25008BF20F0010040EA03007047490015
:101CB80040EB0000013A28BFB0F5000FEDD2B0FAB2
:101CC80080FCACF1080CB2EB0C0200FA0CF0AABFD5
:101CD80000EBC25052421843BCBFD0401843704773
:101CE80092F0000F81F4000106BF80F40000013279
:101CF800013BB5E74FEA41037FEA226C18BF7FEA50
:101D0800236C21D092EA030F04D092F0000F08BF91
:101D18000846704790EA010F1CBF0020704712F078
:101D28007F4F04D1400028BF40F00040704712F1B7
:101D380000723CBF00F50000704700F0004343F01C
:101D4800FE4040F4000070477FEA226216BF084652
:101D58007FEA23630146420206BF5FEA412390EA15
:101D6800010F40F4800070474FF0000304E000BF0B
:101D780010F0004348BF40425FEA000C08BF7047BC
:101D880043F0964301464FF000001CE050EA010280
:101D980008BF70474FF000030AE000BF50EA010295
:101DA80008BF704711F0004302D5404261EB410182
:101DB8005FEA010C02BF84460146002043F0B643A7
:101DC80008BFA3F18053A3F50003BCFA8CF2083ACC
:101DD800A3EBC25310DB01FA02FC634400FA02FCD5
:101DE800C2F12002BCF1004F20FA02F243EB0200DC
:101DF80008BF20F00100704702F1200201FA02FC3E
:101E0800C2F1200250EA4C0021FA02F243EB020030
:101E180008BF20EADC7070474FF0FF0C1CEAD05274
:101E28001EBF1CEAD15392EA0C0F93EA0C0F6FD035
:101E38001A4480EA010C400218BF5FEA41211ED013
:101E48004FF0006343EA501043EA5111A0FB0131FF
:101E58000CF00040B1F5000F3EBF490041EAD371D4
:101E68005B0040EA010062F17F02FD2A1DD8B3F150
:101E7800004F40EBC25008BF20F00100704790F0BF
:101E8800000F0CF0004C08BF49024CEA502040EA11
:101E980051207F3AC2BFD2F1FF0340EAC2507047D7
:101EA80040F400004FF00003013A5DDC12F1190F15
:101EB800DCBF00F000407047C2F10002410021FA87
:101EC80002F1C2F1200200FA02FC5FEA310040F19F
:101ED800000053EA4C0308BF20EADC70704792F018
:101EE800000F00F0004C02BF400010F4000F013A50
:101EF800F9D040EA0C0093F0000F01F0004C02BF4B
:101F0800490011F4000F013BF9D041EA0C018FE7B9
:101F18000CEAD15392EA0C0F18BF93EA0C0F0AD0BF
:101F280030F0004C18BF31F0004CD8D180EA0100E5
:101F380000F00040704790F0000F17BF90F0004F7E
:101F4800084691F0000F91F0004F14D092EA0C0F60
:101F580001D142020FD193EA0C0F03D14B0218BFF3
:101F6800084608D180EA010000F0004040F0FE4039
:101F780040F40000704740F0FE4040F440007047D5
:101F88004FF0FF0C1CEAD0521EBF1CEAD15392EA54
:101F98000C0F93EA0C0F69D0A2EB030280EA010C44
:101FA80049024FEA402037D04FF0805343EA1111DD
:101FB80043EA10130CF000408B4238BF5B0042F13B
:101FC8007D024FF4000C8B4224BF5B1A40EA0C00E0
:101FD800B3EB510F24BFA3EB510340EA5C00B3EB12
:101FE800910F24BFA3EB910340EA9C00B3EBD10F00
:101FF80024BFA3EBD10340EADC001B0118BF5FEA52
:102008001C1CE0D1FD2A3FF650AF8B4240EBC2507A
:1020180008BF20F0010070470CF0004C4CEA50203B
:102028007F32C2BFD2F1FF0340EAC250704740F48A
:1020380000004FF00003013A37E792F0000F00F07C
:10204800004C02BF400010F4000F013AF9D040EAFA
:102058000C0093F0000F01F0004C02BF490011F48E
:10206800000F013BF9D041EA0C0195E70CEAD15386
:1020780092EA0C0F08D142027FF47DAF93EA0C0F6D
:102088007FF470AF084676E793EA0C0F04D14B0251
:102098003FF44CAF08466EE730F0004C18BF31F003
:1020A800004CCAD130F000427FF45CAF31F00043FD
:1020B8007FF43CAF5FE700BF4FF0FF3C06E000BF96
:1020C8004FF0010C02E000BF4FF0010C4DF804CDB9
:1020D8004FEA40024FEA41037FEA226C18BF7FEAC9
:1020E800236C11D001B052EA530C18BF90EA010FCB
:1020F80058BFB2EB030088BFC81738BF6FEAE1705A
:1021080018BF40F0010070477FEA226C02D15FEAF5
:10211800402C05D17FEA236CE4D15FEA412CE1D061
:102128005DF8040B704700BF844608466146FFE728
:102138000FB5FFF7C9FF002848BF10F1000F0FBD0A
:102148004DF808EDFFF7F4FF0CBF012000205DF803
:1021580008FB00BF4DF808EDFFF7EAFF34BF012088
:1021680000205DF808FB00BF4DF808EDFFF7E0FF21
:1021780094BF012000205DF808FB00BF4DF808ED72
:10218800FFF7D2FF94BF012000205DF808FB00BFD5
:102198004DF808EDFFF7C8FF34BF012000205DF8B7
:1021A80008FB00BF4FEA40024FEA41037FEA226C76
:1021B80002D15FEA402C08D17FEA236C02D15FEAA2
:1021C800412C02D14FF0000070474FF001007047DA
:1021D80010B5054C237833B9044B13B10448AFF359
:1021E80000800123237010BDB00100200000000012
:1021F800AC3E000808B5034B1BB103490348AFF3D5
:10220800008008BD00000000B4010020AC3E0008BA
:1022180030B58BB0264C4FF0FF3502950E23019355
:1022280006AB009301233B22D021204600F034FF67
:1022380002950223019305AB009301232F22D0219D
:10224800204600F029FF9DF818309DF8192042EA31
:102258000322184B1A809DF81A109DF81B2042EA99
:1022680001225A809DF81C109DF81D2042EA012287
:102278009A809DF820109DF8212042EA0122DA80F8
:102288009DF822109DF8232042EA01221A819DF828
:1022980024109DF8252042EA01225A819DF8141045
:1022A8009DF8152042EA01225A820BB030BD00BFCA
:1022B80088020020740200202DE9F8430446D0F873
:1022C800009049464846FFF7A7FD0546D4F8048024
:1022D80041464046FFF7A0FD01462846FFF794FC1B
:1022E8000546A76839463846FFF796FD0146284651
:1022F800FFF78AFC0546E66831463046FFF78CFD55
:1023080001462846FFF780FCFFF720F9FEF710F892
:10231800FFF724FC054601464846FFF731FE2060DA
:1023280029464046FFF72CFE606029463846FFF7ED
:1023380027FEA06029463046FFF722FEE060BDE890
:10234800F8832DE9F04F83B004460E469346D1F842
:1023580000A0156829465046FFF75EFD0746D6F8E7
:102368000480DBF80430009319464046FFF754FD1B
:1023780001463846FFF746FC0190B768DBF808903D
:1023880049463846FFF748FD01460198FFF73AFCF1
:102398000190F668DBF80CB059463046FFF73CFD73
:1023A80001460198FFF72EFC206000995046FFF780
:1023B80033FD019041462846FFF72EFD014601985E
:1023C800FFF722FC019059463846FFF725FD0146E4
:1023D8000198FFF719FC019031464846FFF71CFDAC
:1023E80001460198FFF70EFC606049465046FFF72A
:1023F80013FD019059464046FFF70EFD014601982E
:10240800FFF700FC019039462846FFF705FD014615
:102418000198FFF7F9FB019031460098FFF7FCFCA3
:1024280001460198FFF7F0FBA06059465046FFF7B8
:10243800F3FC824649464046FFF7EEFC014650460B
:10244800FFF7E2FB804639460098FFF7E5FC0146B6
:102458004046FFF7D7FB074631462846FFF7DCFC26
:1024680001463846FFF7D0FBE060204603B0BDE8E0
:10247800F08F2DE9F04188B004460F46164698467D
:102488004FF07C510E98FFF7C7FC05463846FFF71A
:102498006FFC2946FFF7C0FC07463046FFF768FC8B
:1024A8002946FFF7B9FC06464046FFF761FC294676
:1024B800FFF7B2FC002304930597069607906D4634
:1024C80004AA21462846FFF73CFF95E80F0084E858
:1024D8000F002046FFF7F0FE08B0BDE8F0812DE9B7
:1024E800F04704460F4616461D46D0F8048041467C
:1024F8000068FFF791FC8246D4F80890E1684846E6
:10250800FFF78AFC01465046FFF77EFB0146FFF7BE
:102518007BFB824641464046FFF77EFC80464946A3
:102528004846FFF779FC01464046FFF76DFB014638
:10253800FFF76AFB01464FF07E50FFF763FBFFF79A
:1025480005F8804689465046FFF700F842464B4654
:10255800FDF7ECFEFFF702FB3860A1682068FFF783
:102568005BFC07466168E068FFF756FC01463846A1
:10257800FFF748FB0146FFF747FBFEF7E7FFFDF7CC
:10258800ADFEFFF7EBFA3060E76839462068FFF7E1
:1025980043FC8046A66831466068FFF73DFC01466B
:1025A8004046FFF731FB0146FFF72EFB0446314654
:1025B8003046FFF731FC064639463846FFF72CFC13
:1025C80001463046FFF720FB0146FFF71DFB014699
:1025D8004FF07E50FFF716FBFEF7B8FF06460F4692
:1025E8002046FEF7B3FF32463B46FDF79FFEFFF756
:1025F800B5FA2860BDE8F08700B54FF0000CC0F8C8
:1026080000C0C0F804C04FF07E5EC0F808E0C0F813
:102618000CC0C0F810C0C0F814E08161C261036248
:102628005DF804FB2DE9F04F87B0044602911F4680
:102638000568D0F8049049461046FFF7E3FA394692
:10264800FFF7EAFB01462846FFF7DEFA80462060DE
:10265800A568D4F814A039465046FFF7DDFB019071
:10266800E6683146FFF7CEFAD4F810B05946FFF7BE
:10267800C9FAA169FFF7C8FA3946FFF7CDFB014649
:102688002846FFF7C1FA0546A06001993046FFF7D2
:10269800B9FA0646E06001995846FFF7B3FA83464F
:1026A80020613946E069FFF7B7FB01465046FFF75E
:1026B800ABFA0390606141460298FFF7A3FA0190D4
:1026C800216A2846FFF7A0FA074601462846FFF781
:1026D80057FC8246049039465846FFF751FC074696
:1026E800059001995046FFF797FB01464046FFF7D2
:1026F8008BFA8046206001993846FFF78DFB01462A
:102708004846FFF781FA606051462846FFF784FB88
:1027180001462846FFF776FAA06051463046FFF793
:102728007BFB01463046FFF76DFAE06039462846E4
:10273800FFF772FB01465846FFF764FA20613946F5
:102748003046FFF769FB01460398FFF75BFA6061C3
:10275800404607B0BDE8F08F2DE9F04180460F46AE
:102768002B4DB5F90000FFF703FB4FF06251FFF75F
:1027780053FB0446B5F90200FFF7FAFA4FF062512D
:10278800FFF74AFB0646B5F90400FFF7F1FA4FF0E8
:102798006251FFF741FB054601463046FDF7F4FD5F
:1027A8001C49FFF739FBFEF7D1FE17A3D3E9002335
:1027B800FFF74EF8FFF7D2F9C8F800003146304667
:1027C800FFF72AFB064629462846FFF725FB014660
:1027D8003046FFF719FAFDF7D9FD014604F100402C
:1027E800FDF7D2FD0B49FFF717FBFEF7AFFE06A377
:1027F800D3E90023FFF72CF8FFF7B0F93860BDE8FC
:10280800F08100BFAFF300804AD8124DFB21094088
:10281800740200200000344372B6FEE700B591B0A0
:102828002822002106A8FDF7DBFC00230193029370
:10283800039304930593012206924FF48033079380
:102848000A9202220D920E934FF4E0130F9306A8FA
:1028580000F044FE80B90F23019302210291002366
:1028680003934FF480620492059301A801F068F87D
:1028780020B911B05DF804FBFFF7CEFFFFF7CCFFDE
:10288800F0B585B000F0DCFDFFF7C8FF00F098F860
:1028980000F0B8F8482001F0A7FA354E354D364C0F
:1028A80033462A4621463548FFF7A6FE33462A46D0
:1028B80021463348FFF7A0FE33462A4621463148D1
:1028C800FFF79AFE304B4FF07E521A6000225A6092
:1028D8009A60DA602D4801F0A3FA2D4D2860FFF7C1
:1028E80097FC2C4C284E2B680093B4F90A30B4F9A5
:1028F8000820B4F906103046FFF7BBFD264F3B46CB
:10290800264A27493046FFF7EAFD03A902A8FFF740
:1029180023FFB4F90600FFF72BFA2249FFF730FB33
:102928000646B4F90800FFF723FA1E49FFF728FB0B
:1029380004462B68324602991048FFF773FE1A4E78
:1029480030602B68224603990D48FFF76BFE174B42
:1029580018603B68164A13603168164A1160164AB7
:102968001060164A13600A2000F08EFDB2E700BF1F
:102978008FC2F53CA69B443B6F12833A500200205D
:10298800080200202C020020F8010020F401002099
:10299800F001002074020020D8010020DC01002092
:1029A800E001002000000343D4010020D0010020F2
:1029B800CC010020EC010020E8010020E401002007
:1029C80084B00F4B9A6942F020029A619A6902F02A
:1029D80020020192019A9A6942F004029A619A6966
:1029E80002F004020292029A9A6942F008029A617D
:1029F8009B6903F008030393039B04B0704700BF6F
:102A08000010024008B50B480B4B03600B4B4360AA
:102A180000238360C3604FF4804202614361836195
:102A2800C361036200F05AFA00B908BDFFF7F4FE6B
:102A3800FBE700BF8802002000540040A086010088
:102A480010B586B00023029303930493059302689C
:102A5800114B9A4201D006B010BD104CA36943F047
:102A68000803A361A36903F008030093009BC02334
:102A78000293122303930323059302A9084801F044
:102A88002BF8E36943F40013E361E36903F40013EB
:102A98000193019BDFE700BF005400400010024093
:102AA800000C0140FEE7FEE7FEE7FEE7FEE77047A1
:102AB8007047704708B500F0D5FC08BD82B00E4BD2
:102AC8009A6942F001029A619A6902F00102009241
:102AD800009ADA6942F08052DA61DB6903F08053C8
:102AE8000193019B054A536823F0E06343F00073A8
:102AF800536002B0704700BF001002400000014060
:102B080003685A6912F4806F01D1002070476FF48E
:102B180080625A6100230363202280F83D2080F8F8
:102B28003E30026C42F00402026480F83C3001201E
:102B380070472DE9F04106460C46174698463BE09B
:102B480000F09CFC069BC01A404502D8B8F1000F63
:102B580032D1012D18D033689B6924EA03039BB254
:102B6800B3FA83F35B099F4226D100233363202203
:102B780086F83D2086F83E30326C42F020023264FE
:102B880086F83C30012027E033685B6924EA0303B8
:102B98009BB2B3FA83F35B09E5E733685B6924EA20
:102BA800030C1FFA8CFCBCFA8CFC4FEA5C1C6745D2
:102BB80011D1B8F1FF3FC3D1C4F30745012DECD0C3
:102BC80033689B6924EA030C1FFA8CFCBCFA8CFC62
:102BD8004FEA5C1CEBE70020BDE8F0812DE9F843E3
:102BE80005460E469046994653E01A6842F400722C
:102BF8001A602B686FF480625A6100232B632022CD
:102C080085F83D2085F83E302A6C42F004022A649B
:102C180085F83C3001204AE000F030FCA0EB0900C8
:102C2800404502D8B8F1000F33D1012F17D02B68D7
:102C38009B6926EA03039BB2003B18BF012343B3F9
:102C480000232B63202285F83D2085F83E302A6C2E
:102C580042F020022A6485F83C30012027E02B68E6
:102C68005B6926EA03039BB2003B18BF0123E6E732
:102C78002B689C6926EA0404A4B2003C18BF01240E
:102C8800A4B12B685A6912F4806FAED1B8F1FF3F36
:102C9800C2D1C6F30747012FEAD12B685C6926EA3F
:102CA8000404A4B2003C18BF0124E9E70020BDE8F1
:102CB800F88370B504460D46164623685B6913F021
:102CC800800F21D12046FFF71BFFF8B9B5F1FF3F70
:102CD800F3D000F0D3FB801BA84201D8002DECD123
:102CE80023685B6913F0800FE7D100232363202258
:102CF80084F83D2084F83E30226C42F020022264A1
:102D080084F83C30012000E0002070BD0120FCE781
:102D18002DE9F04784B004460D46164699460C9FA7
:102D2800DDF834800268136843F480631360036835
:102D3800196841F480711960CDF800803B46002283
:102D48004FF00111FFF7F5FE70B95FFA85FA2368B5
:102D580005F0FE051D6143463A4641492046FFF706
:102D68003DFF68B1012008E023681B6813F4807FE9
:102D780002D04FF400732364032004B0BDE8F08749
:102D88000023039323685A6903929B690393039B67
:102D9800424639462046FFF78CFF80B9B9F1010F4A
:102DA80018D12368F6B21E61424639462046FFF71D
:102DB80080FF68B3236C042B24D00120DDE7236C4B
:102DC800042B01D00120D8E72268136843F400736C
:102DD8001360F7E72368320A1A61424639462046EB
:102DE800FFF767FF18B92368F6B21E61DCE7236CAA
:102DF800042B01D00120C0E72268136843F4007354
:102E08001360F7E72268136843F400731360D4E78C
:102E18002268136843F480731360CDF800803B4642
:102E280000224FF001112046FFF783FE68B922689F
:102E38004AF00103136143463A4609492046FFF721
:102E4800CDFE002899D0012097E723681B6813F46A
:102E5800807F02D04FF40073236403208DE700BF06
:102E68000200010070B504460D46164614E06FF0E6
:102E780010025A6100232363202284F83D2084F83D
:102E88003E30226C226484F83C30012025E023681F
:102E98005B6913F0400F10D02368586910F0400F99
:102EA8001AD1586910F0100FE1D100F0E7FA801B31
:102EB800A842ECD8002DEFD1E9E7002323632022B4
:102EC80084F83D2084F83E30226C42F020022264CF
:102ED80084F83C30012000E0002070BD002800F09C
:102EE800CC8070B5044690F83D30002B77D0242371
:102EF80084F83D302268136823F0010313602268C8
:102F0800136843F4004313602268136823F40043F2
:102F1800136000F0D1FD62685A4B9A4264D85A4B4C
:102F280098428CBF00230123002B40F0A88057490A
:102F3800A1FB00318B0C25686A6822F03F0242EA47
:102F480091426A6021680A6A22F03F0266684D4D24
:102F5800AE424FD8013313430B622168CA6922F489
:102F68004F4222F0FF026568464B9D424CD8431EF3
:102F78006D00B3FBF5F3013340F6FC70034278D0E3
:102F8800C3F30B031A43CA6121680B6823F0C0031B
:102F9800E269206A024313430B6021688B6823F4BB
:102FA800034323F0FF032269E068024313438B6065
:102FB8002168CB6823F0FF036269A06902431343C9
:102FC800CB602268136843F001031360002020647B
:102FD800202384F83D30206384F83E0070BD80F8DB
:102FE8003C30FFF72DFD82E7294B98428CBF002328
:102FF800012399E74FF4967505FB03F3254DA5FBCF
:1030080003539B090133A6E7A668BEB9431E05EB27
:10301800450CB3FBFCF30133C3F30B03B3FA83F39F
:103028005B0943BBC6B9431E05EB4505B3FBF5F386
:103038000133C3F30B0343F40043A3E7431E05EB3B
:10304800850C0CEB8C0CB3FBFCF30133C3F30B03C3
:10305800B3FA83F35B09E4E7431E05EB850505EB4B
:103068008505B3FBF5F30133C3F30B0343F4404386
:1030780088E7042386E7012384E7012070470120BD
:10308800ACE700BFA08601007F841E0083DE1B43DF
:10309800FF083D00D34D62102DE9F04389B0044686
:1030A8000F4690469946129E0023079300F0E6F9D2
:1030B800054694F83D00C0B2202804D002273846BF
:1030C80009B0BDE8F0830095192301228149204603
:1030D800FFF72FFD002840F07C8194F83C30012B4D
:1030E80000F07981012384F83C3023681A6812F0D3
:1030F800010F03D11A6842F001021A6022681368AE
:1031080023F400631360222384F83D30402384F8BD
:103118003E3000232364109B6362BDF8443063850E
:10312800638D23856C4BE362019500964B464246BE
:1031380039462046FFF7ECFD0746002840F04D8150
:10314800238D5BB9039323685A6903929A690392A2
:10315800039A1A6842F400721A60F2E0012B0FD049
:10316800022B21D02268136843F480631360002384
:10317800069323685A6906929B690693069BE0E0CA
:103188002268136823F48063136072B600230493E3
:1031980023685A6904929A690492049A1A6842F454
:1031A80000721A6062B6CCE02268136843F40063C8
:1031B800136072B60023059323685A6905929A69C9
:1031C8000592059A1A6822F480621A6062B6B8E01D
:1031D8002A4631462046FFF745FE002840F0FF808A
:1031E80023681A69636A1A70636A01336362238DFC
:1031F800013B2385638D9BB2013B9BB26385A0E0B5
:1032080000953346002235492046FFF792FC0028F6
:1032180040F0E9802268136823F48063136072B673
:1032280023681A69636A1A70636A01336362238DBB
:10323800013B2385638D9BB2013B9BB26385284B81
:103248001B68DB08274AA2FB03231B0A03EB830343
:10325800C3EBC3030793079B013B0793079B002B13
:1032680028D023685A6912F0040FF4D01A6842F47F
:1032780000721A6023681A69636A1A70636A0133F4
:103288006362238D013B2385638D9BB2013B9BB217
:10329800638562B623681A69636A1A70636A0133C0
:1032A8006362238D013B2385638D9BB2013B9BB2F7
:1032B800638546E02363202284F83D2084F83E306D
:1032C800226C42F02002226462B684F83C30012766
:1032D800F5E600BF020010000000FFFF0400010037
:1032E8007000002089B5F8142A4631462046FFF7B9
:1032F800B9FD002879D123681A69636A1A70636A6C
:1033080001336362228D013A92B22285638D9BB2AA
:10331800013B9BB263852368596911F0040F10D0F3
:10332800032A48D023681A69636A1A70636A0133EA
:103338006362238D013B2385638D9BB2013B9BB266
:103348006385238D002B3BD0032BCDD8012B3FF475
:103358003FAF022B7FF454AF009533460022244937
:103368002046FFF7E6FB00283BD172B622681368B7
:1033780043F40073136023681A69636A1A70636AF6
:1033880001336362238D013B2385638D9BB2013B2F
:103398009BB2638562B623681A69636A1A70636AA6
:1033A80001336362238D013B2385638D9BB2013B0F
:1033B8009BB26385C5E71A6822F480621A60B1E798
:1033C800202384F83D30002384F83E3084F83C30D4
:1033D80075E6022773E6022771E601276FE60127E3
:1033E8006DE601276BE6012769E6012767E600BF5E
:1033F8000400010010B504460E4B1A784FF47A7396
:10340800B3FBF2F30C4A1068B0FBF3F000F0D6FC03
:1034180068B90F2C01D901200AE0002221464FF09B
:10342800FF3000F0BBFC054B1C60002000E00120D1
:1034380010BD00BF68000020700000206C00002054
:1034480008B5074A136843F010031360032000F01F
:1034580093FC0020FFF7CEFFFFF730FB002008BDEC
:1034680000200240034A1168034B1B780B44136089
:10347800704700BFDC02002068000020014B18687C
:10348800704700BFDC02002038B50446FFF7F6FF9E
:103498000546B4F1FF3F02D0044B1B781C44FFF7EC
:1034A800EDFF401BA042FAD338BD00BF68000020E2
:1034B80082B0084B1B68084AA2FB03235B0A00FB87
:1034C80003F3019300BF019B5A1E0192002BF9D10F
:1034D80002B0704770000020D34D6210002800F041
:1034E800F18170B582B00446036813F0010F2CD047
:1034F800994B5B6803F00C03042B1DD0964B5B685B
:1035080003F00C03082B12D06368B3F5803F41D059
:10351800002B55D103F1804303F504331A6822F4D4
:1035280080321A601A6822F480221A6037E08A4BC7
:103538005B6813F4803FE7D0874B1B6813F4003FA8
:1035480003D06368002B00F0BF81236813F0020FDB
:1035580075D0814B5B6813F00C0F5FD07E4B5B68B6
:1035680003F00C03082B54D02369002B00F08A8049
:103578007A4B01221A60FFF781FF0546764B1B68DC
:1035880013F0020F75D1FFF779FF401B0228F5D918
:1035980003209EE1704A136843F480331360636824
:1035A80043B3FFF76BFF05466B4B1B6813F4003FF3
:1035B800CBD1FFF763FF401B6428F5D9032088E1CE
:1035C800B3F5A02F09D0644B1A6822F480321A6030
:1035D8001A6822F480221A60E1E703F18043A3F518
:1035E8003C331A6842F480221A601A6842F4803226
:1035F8001A60D4E7FFF742FF0546574B1B6813F4E0
:10360800003FA2D0FFF73AFF401B6428F5D90320FA
:103618005FE1514B5B6813F4803FA5D14E4B1B68AB
:1036280013F0020F03D02369012B40F04F814A4A5F
:10363800136823F0F803616943EAC1031360236840
:1036480013F0080F33D0A369002B5CD0434B012241
:10365800C3F88024FFF712FF05463F4B5B6A13F05F
:10366800020F21D1FFF70AFF401B0228F5D90320DA
:103678002FE1394A136823F0F803616943EAC1036B
:103688001360DCE7354B00221A60FFF7F7FE0546AA
:10369800314B1B6813F0020FD1D0FFF7EFFE401B30
:1036A8000228F5D9032014E10120FFF701FF236860
:1036B80013F0040F00F09680274BDB6913F0805F4E
:1036C80034D1254BDA6942F08052DA61DB6903F0C4
:1036D80080530193019B0125214B1B6813F4807FC4
:1036E80026D0E368012B3DD0002B53D103F1804352
:1036F80003F504331A6A22F001021A621A6A22F0E8
:1037080004021A6233E0154B0022C3F88024FFF745
:10371800B5FE0546104B5B6A13F0020FC7D0FFF7E2
:10372800ADFE401B0228F5D90320D2E00025D3E7DF
:103738000B4A136843F480731360FFF79FFE064635
:10374800074B1B6813F4807FCBD1FFF797FE801BD4
:103758006428F5D90320BCE0001002400000424272
:10376800007000405F4A136A43F001031362E36884
:1037780033B3FFF783FE06465A4B1B6A13F0020F5A
:103788002FD1FFF77BFE801B41F288339842F3D993
:1037980003209EE0052B09D0524B1A6A22F0010241
:1037A8001A621A6A22F004021A62E0E74D4B1A6A9A
:1037B80042F004021A621A6A42F001021A62D6E75B
:1037C800FFF75CFE0646474B1B6A13F0020F08D052
:1037D800FFF754FE801B41F288339842F3D9032047
:1037E80077E0E5B9E369002B72D03E4A526802F0EF
:1037F8000C02082A56D0022B17D03B4B00221A661F
:10380800FFF73CFE0446374B1B6813F0007F47D098
:10381800FFF734FE001B0228F5D9032059E0314A8E
:10382800D36923F08053D361DCE72F4B00221A665B
:10383800FFF724FE05462B4B1B6813F0007F06D0CC
:10384800FFF71CFE401B0228F5D9032041E0236A3C
:10385800B3F5803F1AD023494B6823F47413226AC6
:10386800606A024313434B601F4B01221A66FFF73D
:1038780005FE04461B4B1B6813F0007F0ED1FFF7B3
:10388800FDFD001B0228F5D9032022E0154A5368E4
:1038980023F40033A1680B435360DCE7002018E0F1
:1038A800002016E0012B16D00E4B5B6803F4803124
:1038B800226A914211D103F47013626A93420ED1C5
:1038C800002006E001207047012002E0012000E00E
:1038D800002002B070BD0120FBE70120F9E70120BC
:1038E800F7E700BF00100240000042420F4B5B6840
:1038F80003F00C02082A01D00D487047C3F3834235
:103908000C49885C13F4803F0BD0084B5B68C3F309
:103918004043094AD35C064A02FB00F0B0FBF3F0CF
:103928007047064B03FB00F0704700BF00100240D1
:1039380000127A00743F0008703F000800093D003B
:10394800002800F0A08070B50D460446524B1B6855
:1039580003F007038B420BD24F4A136823F0070387
:103968000B431360136803F007038B4240F08D800C
:10397800236813F0020F17D013F0040F04D0474A3E
:10398800536843F4E0635360236813F0080F04D0CE
:10399800424A536843F460535360404A536823F0E3
:1039A800F003A1680B435360236813F0010F31D073
:1039B8006368012B20D0022B25D0384A126812F0F8
:1039C800020F64D035494A6822F0030213434B6062
:1039D800FFF754FD0646314B5B6803F00C03626841
:1039E800B3EB820F16D0FFF749FD801B41F28833F5
:1039F8009842F0D9032045E0284A126812F4003FA3
:103A0800E0D101203EE0254A126812F0007FD9D1AA
:103A1800012037E0204B1B6803F00703AB420AD9AB
:103A28001D4A136823F007032B431360136803F040
:103A38000703AB422DD1236813F0040F06D0174AB1
:103A4800536823F4E063E1680B435360236813F081
:103A5800080F07D0114A536823F46053216943EAD9
:103A6800C1035360FFF742FF0C4B5B68C3F30313BA
:103A78000B4AD35CD8400B4B18600B4B1868FFF708
:103A8800B9FC002070BD012070470120FAE7012031
:103A9800F8E70120F6E700BF0020024000100240CE
:103AA8008C3F0008700000206C000020014B186853
:103AB800704700BF7000002008B5FFF7F7FF044B00
:103AC8005B68C3F30223034AD35CD84008BD00BF38
:103AD80000100240843F000870B582B00024A4465C
:103AE800ABE0854DAB4214D00CD8A5F58015AB42A0
:103AF8000FD005F57025AB420BD0A5F58015AB426C
:103B080010D106E07D4DAB4203D005F58035AB42C0
:103B180008D18B68002B5AD0012B53D0426108245E
:103B280000E0CC68BEF1FF0F53D806464FEA8C027E
:103B380033680F25954023EA050304FA02F213437C
:103B480033604B6813F0805F75D06D4B9A6942F013
:103B580001029A619B6903F001030193019B4FEAFB
:103B68009C02951C674B53F825600CF00305AD00CB
:103B78000F23AB4026EA0306634B984230D003F587
:103B88008063984200F0968003F58063984200F0C5
:103B9800938003F58063984200F0908003F580637A
:103BA800984200F08D8003F58063984216D0062372
:103BB80017E0CC680434B5E7CC680834B2E7CC68C1
:103BC8000C34AFE702610824ACE70024AAE7042418
:103BD800A8E7061DACF108029200A9E7052300E05A
:103BE8000023AB4033430232464D45F822304B6840
:103BF80013F4801F66D0454A936843EA0E03936026
:103C08004B6813F4001F63D0404AD36843EA0E039D
:103C1800D3604B6813F4003F60D03C4A536843EAD2
:103C28000E0353604B6813F4803F5DD0374A136826
:103C380043EA0E0313600CF1010C0B6833FA0CF223
:103C480058D0012202FA0CF203EA020E32EA030308
:103C5800F1D14B68122B3FF644AF122B3FF662AFFF
:103C680001A555F823F000BF1B3B00082B3B0008BB
:103C7800C13B0008D33B00082D3B00082D3B000842
:103C88002D3B00082D3B00082D3B00082D3B00086C
:103C98002D3B00082D3B00082D3B00082D3B00085C
:103CA8002D3B00082D3B00082D3B0008BB3B0008BE
:103CB800C73B0008012394E7022392E7032390E718
:103CC80004238EE7114A936823EA0E03936097E76B
:103CD8000E4AD36823EA0E03D3609AE70B4A536867
:103CE80023EA0E0353609DE7084A136823EA0E038C
:103CF8001360A0E702B070BD000022100000311070
:103D0800001002400000014000080140000401408A
:103D1800002808DB0901C9B200F1604000F56140E4
:103D280080F80013704700F00F000901C9B2014B79
:103D38001954704714ED00E000B500F00700C0F119
:103D4800070CBCF1040F28BF4FF0040C031D062B11
:103D58000FD9C31E4FF0FF3E0EFA0CF021EA000106
:103D680099400EFA03FE22EA0E0241EA02005DF8CB
:103D780004FB0023EEE70000074AD36823F4E0635E
:103D88001B041B0C000200F4E060034343F0BF6314
:103D980043F40033D360704700ED00E010B50446EB
:103DA800054BD868C0F30220FFF7C6FF014620463E
:103DB800FFF7AEFF10BD00BF00ED00E00138B0F125
:103DC800807F0BD24FF0E0235861054AF02182F83A
:103DD80023100020986107221A617047012070475C
:103DE80000ED00E070470000094AD2F8FC3043F0CB
:103DF8008073C2F8FC30074B00225A601A6842F000
:103E080001021A60044B03FB00F0044B1860704772
:103E180000ED00E0001000E040420F00E00200204A
:103E280030B583B004460A4B5B6801930198236858
:103E3800C01AFDF799FF0546064B1868FDF794FF71
:103E480001462846FEF79CF8019B236003B030BD6D
:103E5800001000E0E0020020FFF7C4FF0B480C4907
:103E68000C4A002302E0D458C4500433C4188C42CE
:103E7800F9D3094A094C002301E013600432A24235
:103E8800FBD3FCF703FAFEF7FBFC704700000020A9
:103E980074000020A83F000874000020E4020020FD
:103EA800FEE70000F8B500BFF8BC08BC9E467047A6
:0C3EB800F8B500BFF8BC08BC9E4670477F
:103EC800182D4454FB21E9BFD221337F7CD902400D
:103ED800D221337F7CD902C000000000000000809E
:103EE800182D4454FB210940182D4454FB2109C0C6
:103EF8004FBB610567ACDD3F182D4454FB21E93FFA
:103F08009BF681D20B73EF3F182D4454FB21F93FE8
:103F1800E2652F227F2B7A3C075C143326A6813C6E
:103F2800BDCBF07A8807703C075C143326A6913C19
:103F3800DB0F49BFE4CB1640E4CB16C0000000807D
:103F4800DB0F4940DB0F49C03863ED3EDA0F493FCC
:103F58005E987B3FDA0FC93F6937AC31682122335D
:103F6800B40F14336821A2330102000002030405D0
:103F7800060708090A0B0C0D0E0F101000000000B0
:103F88000102030400000000000000000102030415
:083F9800060708090000000003
:043FA000FD210008F7
:043FA400D921000817
:103FA800040000200000000074000020DC00002055
:103FB8004401002000000000000000000000000094
:103FC80000000000000000000000000000000000E9
:103FD80000000000000000000000000000000000D9
:103FE80000000000000000000000000000000000C9
:103FF800000000000000F03F59F3F8C21F6EA50151
:104008000000803F6042A20D010000001000000087
:0440180000127A0018
:0400000508003E6150
:00000001FF
